:100000000C94E9000C94AB0B0C94760B0C9411013E
:100010000C9411010C9411010C94F90A0C94110127
:100020000C9411010C9411010C9411010C94110108
:100030000C9411010C9411010C9411010C941101F8
:100040000C94AF0A0C9411010C9411010C94110141
:100050000C9411010C9411010C9411010C941101D8
:100060000C9411010C9411010001020408102040AD
:10007000801B36637C777BF26B6FC53001672BFE8C
:10008000D7AB76CA82C97DFA5947F0ADD4A2AF9CEE
:10009000A472C0B7FD9326363FF7CC34A5E5F171C5
:1000A000D8311504C723C31896059A071280E2EBCE
:1000B00027B27509832C1A1B6E5AA0523BD6B3295E
:1000C000E32F8453D100ED20FCB15B6ACBBE394AEB
:1000D0004C58CFD0EFAAFB434D338545F9027F50F2
:1000E0003C9FA851A3408F929D38F5BCB6DA2110F1
:1000F000FFF3D2CD0C13EC5F974417C4A77E3D6489
:100100005D197360814FDC222A908846EEB814DEB8
:100110005E0BDBE0323A0A4906245CC2D3AC629142
:1001200095E479E7C8376D8DD54EA96C56F4EA652C
:100130007AAE08BA78252E1CA6B4C6E8DD741F4B2B
:10014000BD8B8A703EB5664803F60E613557B98699
:10015000C11D9EE1F8981169D98E949B1E87E9CE46
:100160005528DF8CA1890DBFE6426841992D0FB05B
:1001700054BB1600000000240027002A00000000E5
:1001800000250028002B0000000000230026002985
:100190000004040404040404040202020202020330
:1001A000030303030301020408102040800102043A
:1001B00008102001020408102000000008000201BD
:1001C0000000030407000000000000000000010C14
:1001D0008B1411241FBECFEFD8E0DEBFCDBF13E0DC
:1001E000A0E0B1E0E0E3F3E302C005900D92A2309D
:1001F000B107D9F724E0A2E0B3E001C01D92A83511
:10020000B207E1F710E0C8EED0E004C02197FE018C
:100210000E945218C73ED107C9F70E94990C0C944E
:100220008B190C940000FC01AC01455F5F4F8FEF10
:100230009FEF2191822728E0BC0161707727969576
:100240008795672B21F031E0832730EA93272150EF
:1002500099F7E417F50769F7089596E0899FD001AB
:100260001124A353BC4F90967C936E935F9791E0BB
:1002700091969C939197E0913A04F0913B04909170
:100280003904992339F0309751F0811108C08091D9
:10029000E9030994309719F05C968C91FACF089590
:1002A000CF93DF93FB01DA01EC019B01205F3F4F0D
:1002B00091918D9198279993E217F307C9F7DF91F0
:1002C000CF910895FC0180E1815058F020E009F0C1
:1002D00021819191990F27FD9160DF0111979C93E6
:1002E000F3CF0895833081F028F4813099F0823083
:1002F000A9F008958730A9F08830C9F08430B1F4AE
:10030000809180008F7D03C0809180008F778093E3
:100310008000089584B58F7784BD089584B58F7D5E
:10032000FBCF8091B0008F778093B00008958091CB
:10033000B0008F7DF9CFCF93DF93282F30E0F90104
:10034000E754FE4F8491F901EB55FE4FD491F9012A
:10035000EF56FE4FC491CC23A1F081110E9472018F
:10036000EC2FF0E0EE0FFF1FE957FE4FA591B4917F
:10037000EC91ED2381E090E009F480E0DF91CF91F2
:10038000089580E090E0FACF862F0C949B011F9394
:10039000CF93DF93282F30E0F901E754FE4F84918B
:1003A000F901EB55FE4FD491F901EF56FE4FC49180
:1003B000CC23A9F0162F81110E947201EC2FF0E0DE
:1003C000EE0FFF1FE358FE4FA591B4918FB7F8943D
:1003D000EC91111108C0D095DE23DC938FBFDF9123
:1003E000CF911F910895DE2BF8CF862F642F0C94A8
:1003F000C701CF93DF9390E0FC01EB55FE4F2491B2
:100400008F569E4FFC0184918823C9F090E0880F9D
:10041000991FFC01ED58FE4FA591B491FC01E358E2
:10042000FE4FC591D49161110DC09FB7F8948C9186
:10043000209582238C938881282328839FBFDF9176
:10044000CF910895623051F49FB7F8943C91822F78
:10045000809583238C93E8812E2BEFCF8FB7F89470
:10046000EC912E2B2C938FBFEACF862F642F0C9408
:10047000F9013FB7F8948091280390912903A09146
:100480002A03B0912B0326B5A89B05C02F3F19F076
:100490000196A11DB11D3FBFBA2FA92F982F882704
:1004A000BC01CD01620F711D811D911D42E0660FDF
:1004B000771F881F991F4A95D1F708958F929F92B1
:1004C000AF92BF92CF92DF92EF92FF924B015C010D
:1004D0000E9439026B017C010E9439026C197D096E
:1004E0008E099F09683E734081059105A8F321E0BC
:1004F000821A9108A108B10888EEC80E83E0D81EC0
:10050000E11CF11C81149104A104B10429F7FF90AE
:10051000EF90DF90CF90BF90AF909F908F90089515
:100520002FB7F894609124037091250380912603DE
:10053000909127032FBF08950F931F93CF93DF93BD
:10054000C82FD62F86E0C89FF0011124E353FC4F3B
:1005500011A2878D90A181309105F1F058F0823081
:100560009105F1F1039709F440C0DF91CF911F91FC
:100570000F9108956623C9F361E070E08C2F0E940B
:100580002D010E94900260932504709326048093AD
:10059000270490932804E9CF0E949002009125043B
:1005A000109126042091270430912804AB01BC014E
:1005B000401B510B620B730B8091370490913804F0
:1005C000B0E0A0E084179507A607B70748F462E0FB
:1005D00070E08C2FDF91CF911F910F910C942D0122
:1005E00063E070E0D111C1CFF4CF70E060E0F1CFF3
:1005F0006F927F928F929F92AF92BF92CF92DF9233
:10060000EF92FF920F931F93CF93DF9381E080933C
:1006100039040E9490020091290410912A0420912B
:100620002B0430912C04AB01BC01401B510B620B1D
:10063000730B8091350490913604B0E0A0E08417EC
:100640009507A607B70708F014C1C0E080913304EE
:10065000C81760F4E0912F04F0913004EC0FF11D05
:1006600062E080810E94F901CF5FF0CF712C812C74
:10067000912C5401839480913404781608F05FC063
:10068000072D10E0E0913104F0913204E00FF11FEA
:1006900061E080810E94F901E0913104F09132041F
:1006A000E00FF11F60E080810E94C701D501C40105
:1006B000072C04C0880F991FAA1FBB1F0A94D2F7EA
:1006C0006C017C01E094F094612C809133046816F5
:1006D000F8F4C62DD0E0E0912F04F0913004EC0F37
:1006E000FD1F80810E949B012496CC0FDD1FC35308
:1006F000DC4F892B41F4888199818C299D2999832C
:1007000088836394E2CF888199818E219F21F7CFDE
:10071000E0913104F0913204E00FF11F61E080813B
:100720000E94C7018091310490913204080F191F73
:1007300060E0F80180810E94F90173949CCFCDECB8
:10074000D3E0FE018FEF9FEF278D30A1232B21F403
:10075000148E968F858F11A2369624E0E930F20729
:1007600099F7F12C96E0D92E80913304F81608F011
:1007700050C0E12C0F2D10E0000F111F0B521C4F29
:1007800020913404E21608F042C0F80160817181C2
:100790000E2C02C0769567950A94E2F7F29E9001BE
:1007A00011242E0D311DEDECF3E080E0458D568DCA
:1007B0002417350709F461C08F5F36968A30B1F788
:1007C00060FF23C0EDECF3E090E080E0448D411148
:1007D00017C0E0912D04F0912E04E20FF31F408129
:1007E000D89EF001D99EF00D1124E353FC4F448FA5
:1007F000368F258F10A2178E61E00E949C0205C0E3
:10080000019636968A30910509F7E394B9CFF394AF
:10081000ABCF10E089A18111182F2696F4E0C930E2
:10082000DF07C1F70E9490026093290470932A04A5
:1008300080932B0490932C041123D9F08091EE0324
:100840008823B9F08091EC039091ED03019789F42E
:100850008091E903DF91CF911F910F91FF90EF906D
:10086000DF90CF90BF90AF909F908F907F906F90D0
:1008700008951092390480E0EDCF6170BECFAF9241
:10088000BF92CF92DF92EF92FF920F931F93CF937D
:10089000DF936C017B018B01040F151FEB015E01DF
:1008A000AE18BF08C017D10759F06991D601ED9174
:1008B000FC910190F081E02DC6010995892B79F713
:1008C000C501DF91CF911F910F91FF90EF90DF90C5
:1008D000CF90BF90AF900895089590E080E0089584
:1008E000CF93DF93DC01EB01E981F0E0ED58FF4F9E
:1008F0009491E42FF0E0E859FF4FE491E927EC935D
:10090000EA81F0E0ED58FF4FE4911196EC931197D6
:10091000EB81F0E0ED58FF4FE4911296EC931297C3
:10092000E881F0E0ED58FF4FE4911396EC93DF91EE
:10093000CF910895CF93DF93FC01EB015881B981EA
:100940009A812B81652F70E0660F771F3BE1379FFF
:10095000802D11246827CB2FD0E0CC0FDD1F3D9FC9
:10096000402D1124AC2FA427C92FD0E0CC0FDD1FC0
:100970003D9F702D11247C27C22FD0E0CC0FDD1FAE
:100980003D9F302D11243C278B2F892782278627D6
:100990008A278083452F492742274A2747274183B3
:1009A0005B27252727272327228395279627932709
:1009B0009383DF91CF910895CF93DF93DC01EB0117
:1009C000E881F0E0ED58FF4FE491EC93ED81F0E029
:1009D000ED58FF4FE4911196EC931197EA85F0E002
:1009E000ED58FF4FE4911296EC931297EF85F0E0EB
:1009F000ED58FF4FE4911396EC931397EC81F0E0E0
:100A0000ED58FF4FE4911496EC931497E985F0E0CC
:100A1000ED58FF4FE4911596EC931597EE85F0E0B5
:100A2000ED58FF4FE4911696EC931697EB81F0E0AA
:100A3000ED58FF4FE4911796EC931797E885F0E097
:100A4000ED58FF4FE4911896EC931897ED85F0E080
:100A5000ED58FF4FE4911996EC931997EA81F0E075
:100A6000ED58FF4FE4911A96EC931A97EF81F0E05E
:100A7000ED58FF4FE4911B96EC931B97EC85F0E04B
:100A8000ED58FF4FE4911C96EC931C97E981F0E040
:100A9000ED58FF4FE4911D96EC931D97EE81F0E029
:100AA000ED58FF4FE4911E96EC931E97EB85F0E016
:100AB000ED58FF4FE4911F96EC93DF91CF9108958D
:100AC000FC013296429610823196E817F907D9F761
:100AD00008950895BF92CF92DF92EF92FF920F9305
:100AE0001F93CF93DF93CDB7DEB7E4970FB6F8949B
:100AF000DEBF0FBECDBF7B0120E1FC013296DE01DF
:100B0000119601900D922A95E1F7FA018E010F5F7F
:100B10001F4F405F5F4FBE016F5E7F4F9801819115
:100B2000D9019D919D018927DB018D93BD01E417BA
:100B3000F507A9F7BB24B39481E1C82ED12CCC0EC4
:100B4000DD1EB0E1CB0ED11C4B2DBE01635F7F4F8C
:100B5000CE01C1960E947004398189A93827398352
:100B60002A818AA928272A839B818BA998279B837E
:100B70008C814CA984278C834D8134273D834E8101
:100B800024272E834F8194279F8348858427888735
:100B90004985342739874A8524272A874B85942716
:100BA0009B874C8584278C874D8534273D873E85E0
:100BB00023272E872F8592279F8798898927888BBF
:100BC000BE016F5E7F4FCE0181960E94DC04BE01A4
:100BD0006F5D7F4FCE0141960E949A04BE016B5D0E
:100BE0007F4FCE0145960E949A04BE01675D7F4FFC
:100BF000CE0149960E949A04BE01635D7F4FCE01EB
:100C00004D960E949A04AE014F5F5F4FFE017196B0
:100C10008191DA019D91AD019F0121503109892710
:100C2000D9018C93EC15FD0599F7B394BAE0BB128A
:100C30008BCF4AE0BE01635F7F4FCE01C1960E9419
:100C40007004398189A9382739832A818AA92827FC
:100C50002A839B818BA998279B838C814CA984270D
:100C60008C834D8134273D834E8124272E834F81F1
:100C700094279F8348858427888749853427398727
:100C80004A8524272A874B8594279B874C85842770
:100C90008C874D8534273D873E8523272E872F85DA
:100CA00092279F8798898927888BBE016F5E7F4F27
:100CB000CE0181960E94DC04AE014F5D5F4FD701EB
:100CC0009701205F3F4FFA018191AF01F8019191A7
:100CD0008F0189278D93A217B307A9F7E4960FB662
:100CE000F894DEBF0FBECDBFDF91CF911F910F9162
:100CF000FF90EF90DF90CF90BF90089580E190E05B
:100D00000895FC0132964296108231968E179F0705
:100D1000D9F708958F929F92AF92BF92CF92DF92B0
:100D2000EF92FF920F931F93CF93DF936B017C01A0
:100D3000EA010E949002088119812A813B814B01BE
:100D40005C01801A910AA20AB30A950184010C156C
:100D50001D052E053F0590F0688379838A839B8368
:100D600081E0DF91CF911F910F91FF90EF90DF9085
:100D7000CF90BF90AF909F908F90089580E0F1CF7B
:100D8000E1E8F0E08081887F8083E0E8F0E0808126
:100D90008F7D80832A9A60E089E00C94C701229AB3
:100DA00082E28093800088E1809381008FE39CE958
:100DB00090938700809386002A9A089561E08BE0E3
:100DC0000E94C70168E070E080E090E00E945E024F
:100DD00060E08BE00C94C7011092360380911203FF
:100DE000882329F0809136038160809336038091B7
:100DF0001303882329F080913603826080933603A1
:100E000080910D03882329F08091360384608093BC
:100E1000360380910801882329F080913603886089
:100E2000809336030895CF93C82F8CE293E00E94FD
:100E3000130190933803809337038DE0C89FB0016E
:100E400011244DE050E08CE293E0CF910C94BB1460
:100E50000F931F93CF93DF9360E088E00E94C70158
:100E60000E94C00660E089E00E94C701F894E898FB
:100E7000E09A7894809107030E94130761E089E06B
:100E80000E94C7010E94CF06ECE2F3E080819181CD
:100E9000A281B3810196A11DB11D80839183A2839C
:100EA000B383809107038F5F809307036AE070E04C
:100EB00080E090E00E945E02CAE8D0E008EE13E015
:100EC00019830883E0E8F0E0808180628083E1E8B4
:100ED000F0E080818260808368EE73E080E090E0E3
:100EE0000E945E0284EE9CE09983888368EE73E042
:100EF00080E090E00E945E021983088368EE73E050
:100F000080E090E00E945E020E94C00660E089E0FE
:100F10000E94C70161E088E00E94C701F894E89A46
:100F2000E09A7894DF91CF911F910F910895FC0181
:100F300001900020E9F73197AF01481B590BBC0124
:100F40008CE394E00C943F048F929F92AF92BF92F7
:100F50000F931F93CF93DF93CDB7DEB7A1970FB653
:100F6000F894DEBF0FBECDBF19A2423008F44AE0AC
:100F70008E010F5D1F4F842E912CB12CA12CA50149
:100F800094010E941917E62FB901CA01EA30F4F45E
:100F9000E05DD801EE938D01232B242B252B79F7CF
:100FA00090E080E0109719F0CD010E949707A1967C
:100FB0000FB6F894DEBF0FBECDBFDF91CF911F916A
:100FC0000F91BF90AF909F908F900895E95CE1CF13
:100FD0000C949707CF93DF93EC0160E08E810E9421
:100FE000C70161E08E810E94C70160E08E810E948E
:100FF000C7018BE891E00197F1F7DF91CF91089558
:10100000CF92DF92EF92FF920F931F93CF93DF93D4
:101010006C017C0187E0E80EF11CD0E0C0E0062FF7
:1010200010E0B8010C2E02C0759567950A94E2F79E
:101030006170F70181917F010E94C7012196C43040
:10104000D10579F7C601DF91CF911F910F91FF90E4
:10105000EF90DF90CF900C94EA07CF92DF92EF925F
:10106000FF920F931F93CF93DF93EC01F62E642F23
:101070008C810E94C7018D818F3F19F060E00E9432
:10108000C7010F2D10E08F8584FF25C06E0187E01A
:10109000C80ED11CF12CE12CB8010E2C02C07595A4
:1010A00067950A94E2F76170F60181916F010E94E1
:1010B000C701FFEFEF1AFF0A88E0E816F10461F7B5
:1010C000CE01DF91CF911F910F91FF90EF90DF90B4
:1010D000CF900C94EA07B80184E0759567958A95DE
:1010E000E1F7CE010E9400086F2DCE01DF91CF9174
:1010F0001F910F91FF90EF90DF90CF900C9400081C
:1011000040E0682F8CE394E00C942D0881E00E946D
:1011100080088BE39FE10197F1F70895CF93DF9368
:10112000823029F490914B04986090934B04809303
:101130004F041092500480E48093510480E1809326
:10114000520480E58093530461E0809140040E9442
:10115000F901809141048F3F19F061E00E94F9018B
:1011600061E0809142040E94F901CCE3D4E09E0149
:101170002C53344080914B0484FD0BC084E090E0FC
:1011800021962817390744F461E08E810E94F90105
:10119000EECF88E090E0F4CF8BE39DE00197F1F78C
:1011A00060E0809140040E94C70160E080914204A9
:1011B0000E94C701809141048F3F19F060E00E94B6
:1011C000C70180914B0484FD34C063E08CE394E05C
:1011D0000E940008CBE4D6E4CE010197F1F763E06A
:1011E0008CE394E00E9400082197F1F763E08CE320
:1011F00094E00E94000883E592E00197F1F762E035
:101200008CE394E00E94000880914B0480620E946D
:10121000800884E080934C048CE00E9480080E9447
:10122000860882E080934D0486E0DF91CF910C9494
:10123000800880620E9480088BE496E40197F1F7B1
:1012400080914B0480620E94800883E592E00197C0
:10125000F1F780914B0480620E948008D5CF909175
:101260004F04691710F06FEF690FE62FF0E0E45CB0
:10127000FB4F9489890F80680C94800841E00E949C
:101280002D0881E090E0089541E0682F8CE394E020
:101290000E942D0881E090E008954F925F926F9236
:1012A0007F928F929F92AF92BF92CF92DF92EF92F6
:1012B000FF920F931F93CF936B017C01742EAC01AF
:1012C0009B010E941417882399F08DE791E0CF913C
:1012D0001F910F91FF90EF90DF90CF90BF90AF9054
:1012E0009F908F907F906F905F904F900C94970796
:1012F00046015701E894B7F82FEF3FEF4FE75FE75C
:10130000C501B4010E94141781110DC02FEF3FEFEA
:101310004FE75FE7C501B4010E944A1518161CF497
:1013200081E891E0D4CF2FEF3FEF4FE75FE4C701B3
:10133000B6010E94A21618161CF485E891E0C7CFEA
:101340002FEF3FEF4FE75FECC701B6010E944A1550
:1013500087FDF3CF20E030E0A901C701B6010E946C
:101360004A1510E000E087FF08C08DE20E944409A2
:101370008C01F7FAF094F7F8F094C0E060E070E0C8
:1013800080E09FE37C1641F020E030E040E251E451
:101390000E944F15CF5FF6CFA70196010E94DE1481
:1013A0002B013C010E94C1154B015C014AE00E94E7
:1013B000A4077C01E00EF11ECC23B1F1C501B401FC
:1013C0000E94F0159B01AC01C301B2010E94DD1423
:1013D0004B015C018EE20E944409E80EF91EC150E7
:1013E00018F120E030E040E251E4C501B4010E9470
:1013F000A7162B013C010E94C1154B01B12CA12C59
:101400004AE0C501B4010E94A407E80EF91EC50117
:10141000B4010E94F0159B01AC01C301B2010E940E
:10142000DD144B015C01DBCFC701CF911F910F9100
:10143000FF90EF90DF90CF90BF90AF909F908F90F4
:101440007F906F905F904F900895EF92FF921F935F
:10145000CF93DF937C01162F0E94860860E080E026
:101460000E942F0989E891E00E94E807D0E0C0E0DF
:10147000C11730F4F701EC0FFD1F80810E94440971
:101480002196C430D105A1F7143018F08DE20E94E6
:101490004409C4E0D0E0C11730F4F701EC0FFD1FA0
:1014A00080810E9444092196C830D105A1F761E0EE
:1014B00080E00E942F09183018F08DE20E94440944
:1014C000C11730F4F701EC0FFD1F80810E94440921
:1014D0002196CC30D105A1F71C3018F08DE20E9486
:1014E0004409C11730F4F701EC0FFD1F80810E9401
:1014F00044092196C031D105A1F7103118F08DE2D1
:101500000E944409C11730F4F701EC0FFD1F8081E0
:101510000E9444092196C431D105A1F7DF91CF91F2
:101520001F91FF90EF9008950E947D194031510561
:1015300051F4DC01129680E1FB0101900D928A9535
:10154000E1F781E0089580E00895CF93DF93EC0107
:101550000E948106CE01DF91CF910C94F4181F9266
:101560000F920FB60F9211242F933F938F939F9357
:10157000AF93BF938091240390912503A0912603FC
:10158000B09127033091230323E0230F2D3758F523
:101590000196A11DB11D20932303809324039093F2
:1015A0002503A0932603B0932703809128039091ED
:1015B0002903A0912A03B0912B030196A11DB11D0F
:1015C0008093280390932903A0932A03B0932B03BD
:1015D000BF91AF919F918F913F912F910F900FBE2F
:1015E0000F901F90189526E8230F0296A11DB11D9C
:1015F000D2CF1F920F920FB60F9211242F934F93B9
:101600005F936F937F938F939F93AF93BF9320913B
:1016100084008091030390910403A0910503B0918D
:101620000603820F911DA11DB11D809303039093AA
:101630000403A0930503B0930603809103039091E4
:101640000403A0910503B091060340910303509158
:10165000040360910503709106032AE0880F991F27
:10166000AA1FBB1F2A95D1F7840F951FA61FB71F6E
:101670008093030390930403A0930503B0930603A0
:101680008091030390910403A0910503B091060398
:101690004091030350910403609105037091060388
:1016A00026E0B695A795979587952A95D1F7842733
:1016B0009527A627B7278093030390930403A0934D
:1016C0000503B0930603809102038F5F80930203AA
:1016D000BF91AF919F918F917F916F915F914F914A
:1016E0002F910F900FBE0F901F9018951F920F9281
:1016F0000FB60F9211248F939F93AF93BF93809156
:10170000300390913103A0913203B0913303892BC0
:101710008A2B8B2BE1F08091300390913103A091C3
:101720003203B09133030197A109B10980933003CB
:1017300090933103A0933203B0933303BF91AF91E1
:101740009F918F910F900FBE0F901F90189581E081
:1017500080931E03F3CF1F920F920FB60F921124A6
:101760002F933F934F935F936F937F938F939F93A9
:10177000AF93BF93EF93FF9380910901811130C024
:1017800060E088E00E94C7010E94C00660E089E036
:101790000E94C701809107030E94130780912C03C8
:1017A00090912D03A0912E03B0912F030196A11DBE
:1017B000B11D80932C0390932D03A0932E03B0931F
:1017C0002F03809107038F5F8093070380910703A6
:1017D0008E3410F0109207032D9A81E08093090156
:1017E000FF91EF91BF91AF919F918F917F916F91F9
:1017F0005F914F913F912F910F900FBE0F901F90CF
:1018000018951092B9038091BA03807880628F771F
:101810008093BA031092BB031092BC031092BD03D5
:101820001092BE0380E89EEEA6E3B0E08093BF0373
:101830009093C003A093C103B093C2031092CB0353
:101840001092CC0310923F0410923E0485E791E081
:1018500090933D0480933C04109240048FEF80935A
:10186000410481E08093420484E08093430485E056
:101870008093440486E08093450487E08093460487
:1018800010924704109248041092490410924A049E
:1018900010924B0481E00E948E081092CF031092A8
:1018A000D3031092D2031092D4038BE691E090936D
:1018B000CE038093CD03E9EEF3E01082148213820D
:1018C0001582369684E0E532F807B9F78DE091E0AD
:1018D0009093300480932F048AE091E09093320437
:1018E0008093310484E08093330483E08093340454
:1018F00081E191E090932E0480932D048AE090E0A2
:10190000909336048093350484EF91E090933804EB
:101910008093370410923B0410923A0410922904E9
:1019200010922A0410922B0410922C041092390465
:101930000895CF93DF93CDB7DEB7C555D1090FB664
:10194000F894DEBF0FBECDBF789484B5826084BDAD
:1019500084B5816084BD85B5826085BD85B58160B3
:1019600085BD80916E00816080936E001092810031
:1019700080918100826080938100809181008160EC
:1019800080938100809180008160809380008091AD
:10199000B10084608093B1008091B0008160809339
:1019A000B00080917A00846080937A0080917A0000
:1019B000826080937A0080917A00816080937A00BF
:1019C00080917A00806880937A001092C10061E073
:1019D00088E00E94F90161E08BE00E94F901259AFC
:1019E00062E082E00E94F90162E083E00E94F90176
:1019F00080916900826080936900809169008E7F88
:101A0000809369008091690088608093690080916B
:101A100069008B7F80936900E89AE99A789482E064
:101A20000E948E0880E40E94800800E011E0D80146
:101A30006D918D018CE394E00E943E09B1E0083085
:101A40001B07A9F7F12CE12C00E0812C912C54010B
:101A5000312C10E04DE050E0B701CE0101960E941C
:101A6000AB14CE0101960E9413012C853D8582178F
:101A7000930779F489819A81AB81BC81332009F481
:101A80004CC088169906AA06BB0618F4012F4C0113
:101A90005D011F5FEDE0EE0EF11C1E34D9F60093E0
:101AA000070360910703FDE06F9FB00111244DE033
:101AB00050E08CE293E00E94AB148CE293E00E9431
:101AC000130120913703309138038217930759F19E
:101AD00060E080E00E942F0981E991E00E94E80720
:101AE00061E080E00E942F0982EA91E00E94E8070D
:101AF00061E08BE00E94C70162E370E080E090E06B
:101B00000E945E0260E08BE00E94C70164EF71E01A
:101B100080E090E00E945E02EBCF012F4C015D015E
:101B200033243394B6CF809107038F5F80930703EC
:101B3000809107038E3410F01092070380913603D2
:101B40008170809312038091360386958170809313
:101B500013038091360382FB882780F980930D035D
:101B60008091360383FB882780F980930801809158
:101B70002C0390912D03A0912E03B0912F038093FD
:101B80002C0390932D03A0932E03B0932F038091E9
:101B90002C0390912D03A0912E03B0912F03019659
:101BA000A11DB11D80932C0390932D03A0932E03B0
:101BB000B0932F0380912C0390912D03A0912E03BD
:101BC000B0912F038A3F9F4FAF4FBF4F90F00E94BD
:101BD000860860E080E00E942F0983EB91E00E947C
:101BE000E80761E080E00E942F0984EC91E00E9408
:101BF000E80761E08BE00E94C70162E370E080E0EB
:101C000090E00E945E0260E08BE00E94C7010E94AB
:101C1000CF0661E089E00E94F90160E089E00E945E
:101C2000C701CE0101962C01DE0193961D014E01E4
:101C3000B3E18B0E911C809109018823A9F04FE13B
:101C400053E06CE271E080E090E00E948A06882315
:101C500021F0109209010E94CF06E0E0F0E0EF2BA6
:101C600051F30E940000E7CF80911E03882399F072
:101C700080911D0310921E038111F4C00E949002F6
:101C80006093190370931A0380931B0390931C03B2
:101C900081E080931D0380911D038823C1F00E9481
:101CA00090020091190310911A0320911B033091A7
:101CB0001C03601B710B820B930B603A76488140CA
:101CC000910528F010921D03109218032B98109183
:101CD0001803112349F060E08FE00E942F0960E0B3
:101CE0008CE394E00E943E0944E153E068EE73E027
:101CF00080E090E00E948A06882391F0111108C0CC
:101D000080911303811104C080911203882341F054
:101D100085B198E0892785B985B191E0892785B992
:101D20004EE053E060EA7FE080E090E00E948A06A7
:101D3000882321F085B191E0892785B9809130030E
:101D400090913103A0913203B0913303892B8A2BF8
:101D50008B2B69F480910801882349F010920801C7
:101D600081E0809312030E94EC060E942807809174
:101D7000300390913103A0913203B0913303811568
:101D80009D47A105B10568F480911303811109C035
:101D900080910D03811105C081E0809313030E949F
:101DA000EC062D9860E080E00E942F0960913003DE
:101DB0007091310380913203909133030E94F015AA
:101DC00020E030E048E455E40E944F1541E00E94D5
:101DD0004D0985ED91E00E94E807809130039091D4
:101DE0003103A0913203B0913303892B8A2B8B2BC3
:101DF00009F05FC060E088E00E942F096091300325
:101E00007091310380913203909133034AE00E9434
:101E1000A4078BED91E00E94E80761E080E00E945A
:101E20002F0980EE91E00E94E8070E94F802182F27
:101E3000882309F412CF0E94DE06809112038111DB
:101E400005C080911303882309F474C01092120313
:101E50001092130381E080930D030E94EC062B98EF
:101E6000289AFBCE0E9490020091190310911A0348
:101E700020911B0330911C03601B710B820B930B91
:101E8000603A76488140910570F481E080931803B0
:101E90000E9490026093190370931A0380931B03AE
:101EA00090931C03F8CE1092180310921D032B98E8
:101EB000F2CE8091300390913103A0913203B09122
:101EC000330381159D47A105B105D0F460E088E09A
:101ED0000E942F0960913003709131038091320389
:101EE000909133034AE00E94A4078BED91E00E9499
:101EF000E80761E080E00E942F0981EF91E093CF35
:101F000080910D03882321F010920D030E94EC06AE
:101F100061E081E00E942F096091300370913103EC
:101F200080913203909133034AE00E94A40782E03B
:101F300092E079CF80ED810F8A3008F078C30E945B
:101F400086080E9490026093090370930A038093AD
:101F50000B0390930C03198261E088E00E94C70193
:101F600060E080E00E942F0989E891E00E94E80784
:101F700010E049E053E060E573EC80E090E00E94FF
:101F80008A06882309F496C10E9486088091080376
:101F9000815080930803272D2E963FAD2E972F96C4
:101FA0004FAD2F97562D60966FAD609761967FADC0
:101FB000619762968FAD629763969FAD639706E2D5
:101FC0000E941C185901DA01C9012AE0B695A795AB
:101FD000979587952A95D1F72D968CAF9DAFAEAF8B
:101FE000BFAF2D97D501B3706596BFAFAEAF659704
:101FF0006096BFAD6097BF736696BFAF66972D962C
:102000004CAD5DAD6EAD7FAD2D973CE0440F551FDF
:10201000661F771F3A95D1F7706F6596EEADFFADED
:102020006597CF01B0E0A0E0E2E0880F991FAA1FFA
:10203000BB1FEA95D1F7842B952BA62BB72B27E254
:1020400031E03CA32BA33A8229822696BFAF269784
:102050002796AFAF279728969FAF289729968FAFDF
:10206000299740E150E067E571E0C1010E94960ABE
:102070008E010B5C1F4FC80140966801B02EA12E47
:10208000D6011D926D018A179B07D1F789819A812C
:10209000DC01ED91FC910284F385E02D47E451E0F1
:1020A000B80109957E01B3E0EB0EF11CD701F801F0
:1020B00081918D93CE16DF06D9F7C7010E94620188
:1020C0008DA987FF06C047E351E0B701C7010E9411
:1020D00050016701F60181916F0187878E169F0677
:1020E000C9F7C4010E9462018B8187FF06C047E3E4
:1020F00051E0B401C4010E945001FE01EB5BFF4FAF
:1021000090E080E0843091050CF0A9C12081D801D5
:102110002C93319601960F5F1F4F8031910591F7F7
:10212000A4016B2D7A2D8B2D9A2D0E945001F70161
:1021300011927F01CE16DF06D1F7AE014D5F5F4FE2
:102140006B2D7A2DC4010E94500189819A81DC0196
:10215000ED91FC910284F385E02DA4016B2D7A2D85
:1021600009952DA930E040E050E060E070E080E0AB
:1021700090E00EE10E94011859016A017B01E82FED
:10218000192F2EA930E040E050E060E070E080E0E0
:1021900090E006E10E940118A22AB32AC42AD52A97
:1021A000E62AF72AE82B192B2FA930E040E050E06F
:1021B00060E070E080E090E00EE00E940118A22A4A
:1021C000B32AC42AD52AE62AF72AE82B192B28ADE8
:1021D00030E040E050E060E070E080E090E006E059
:1021E0000E940118A22AB32AC42AD52AE62AF72A6D
:1021F000E82B912BA9ADB0E0B595A795B595A7951E
:102200001B2F110F110BAA2ABB2AC12AD12AE12A9E
:10221000F12A012F0E2B192BC1010E948106272DB7
:102220002E963FAD2E972F964FAD2F97562D669633
:102230006FAD669770E080E090E00E94491809F069
:1022400018C180913403909135032B96EEADFFAD0C
:102250002B978E179F0708F00CC110920803659604
:102260002EAD3FAD6597A0E8BCE00E943B17009102
:1022700030031091310320913203309133030095E4
:10228000109520953095061717072807390708F08D
:102290002FC10E94860860E080E00E942F0983E140
:1022A00092E00E94E80761E080E00E942F0983E24B
:1022B00092E092C10E94F802082F882309F459CEB7
:1022C0000E94DE060E9490026093090370930A0345
:1022D00080930B0390930C0380ED800F8A3088F479
:1022E000143108F046CEF201E10FF11D00831F5FAB
:1022F000F201E10FF11D1082612FC2010E94250A37
:1023000038CE0A3229F4112309F433CE1150F0CF1C
:10231000033209F02ECE143109F02BCECE010196F6
:1023200065969FAF8EAF6597712C2E961FAE2E9738
:102330002F961FAE2F97612C60961FAE6097619607
:102340001FAE619762961FAE629763961FAE63974A
:102350006596AEADBFAD65978D916596BFAFAEAFDB
:102360006597882309F417CE80532A968FAF2A9752
:102370008A3008F0A1C227EA3BE94FE555E66EEE48
:102380007FEF8CED9FEF2A96AFAC2A97B12CC12C32
:10239000D12CE12CF12C00E010E00E944018AAE0C2
:1023A000AA2E0E94A417A72C2E96BFAC2E972F966C
:1023B000CFAC2F97D62C6096EFAC60976196FFACB0
:1023C000619762960FAD629763961FAD63970E9407
:1023D000491808F471C2FAE0AF2EB12CC12CD12CEF
:1023E000E12CF12C00E010E0272D2E963FAD2E972A
:1023F0002F964FAD2F97562D60966FAD60976196D3
:102400007FAD619762968FAD629763969FAD63973C
:102410000E944A1759016A017B018C012A962FAD4F
:102420002A9730E040E050E060E070E080E090E02B
:102430000E943718722E2E963FAF2E972F964FAFD1
:102440002F97652E60966FAF609761967FAF61970B
:1024500062968FAF629763969FAF639779CF843010
:10246000910521F420E8D8012C9354CED8011C9278
:1024700051CE109108031F5F109308030E94860835
:10248000153008F0ACC060E080E00E942F098CE4B9
:1024900092E00E94E80761E080E00E942F098DE54C
:1024A00092E00E94E80780910803A5E0B0E0A81B35
:1024B000B1096D010B2E000CEE08FF08B7FFB3C089
:1024C0008DE20E94440966277727CB016C197D09AC
:1024D0008E099F094AE00E94A40768EE73E080E03D
:1024E00090E00E945E0260ED77E080E090E049C1FC
:1024F0002FB7F894C0903003D0903103E0903203AE
:10250000F0903303C60ED71EE81EF91EC0923003AA
:10251000D0923103E0923203F09233032FBF60E098
:1025200088E00E94C7010E94C00681E080930801F4
:102530001092180310921D031092190310921A039F
:1025400010921B0310921C032B98289A10921203CE
:10255000109213032B962EAD3FAD2B97309335037E
:10256000209334030E94EC06809107030E94130716
:1025700080912C0390912D03A0912E03B0912F03F5
:102580000196A11DB11D80932C0390932D03A09360
:102590002E03B0932F03809107038F5F809307036F
:1025A000809107038E3410F01092070361E088E0F9
:1025B0000E94C7010E94CF060E94860860E085E065
:1025C0000E942F0989EF91E00E94E80761E085E011
:1025D0000E942F0987E092E00E94E80784CF60E024
:1025E00081E00E942F0984E392E00E94E807C090F6
:1025F0003003D0903103E0903203F090330361E078
:1026000081E00E942F09C701B6010E94F01520E069
:1026100030E048E455E40E944F1542E00E944D0925
:1026200083E492E0E2CF4AE0C701B60154CF81E1F2
:10263000E1EFF2E0D10101900D928A95E1F781E19D
:102640001A3209F0A1C0F20111928A95E9F761E00E
:1026500088E00E94C7010E94860860E080E00E9436
:102660002F098DE692E00E94E80761E080E00E9479
:102670002F090E9490026093090370930A038093CC
:102680000B0390930C0310E049E053E060E375E71F
:1026900080E090E00E948A06882319F00E94860854
:1026A000DCCA0E94F802082F882361F00E94DE062F
:1026B0000E9490026093090370930A0380930B03B6
:1026C00090930C0380ED800F8A30B0F41031E0F667
:1026D000FF24F394F10EF201E10FF11D0083F201EA
:1026E000EF0DF11D108261E0812F0E942F098AE217
:1026F0000E9444091F2DC8CF0A3299F4112321F2F8
:102700001150F201E10FF11D108261E0812F0E9452
:102710002F0980E20E94440961E0812F0E942F0965
:10272000B3CF033209F0B0CFB101C2010E948219C8
:10273000892B09F0B8C00E94860860E080E00E9402
:102740002F098EE792E00E94E8074AE06FE070E010
:1027500080E090E00E94A40761E080E00E942F09E1
:1027600089E892E00E94E807609134037091350394
:1027700090E080E04AE00E94A40768EB7BE080E004
:1027800090E00E945E028ACFD2011D928A95E9F7FD
:1027900061E088E00E94C7010E94860860E080E056
:1027A0000E942F0982EA92E00E94E80761E080E03F
:1027B0000E942F090E9490026093090370930A03FC
:1027C00080930B0390930C0310E049E053E060E327
:1027D00075E780E090E00E948A0681115FCF0E9439
:1027E000F802082F882361F00E94DE060E94900202
:1027F0006093090370930A0380930B0390930C0377
:1028000080ED800F8A30B0F41031F8F6FF24F39495
:10281000F10EF201E10FF11D0083F201EF0DF11D48
:10282000108261E0812F0E942F098AE20E944409F0
:102830001F2DCBCF0A3299F4112339F21150F20136
:10284000E10FF11D108261E0812F0E942F0980E2CB
:102850000E94440961E0812F0E942F09B6CF033204
:1028600009F0B3CFB101C2010E948219892BD9F4BA
:102870000E94860860E080E00E942F0982EB92E0CF
:102880000E94E80761E080E00E942F0983EC92E05B
:102890000E94E80764EF71E080E090E00E945E0231
:1028A0000E942807FBCE0E94860860E080E00E941C
:1028B0002F0981E992E090CE0E94860860E082E0D4
:1028C0000E942F0982ED92E00E94E80761E080E01B
:1028D0000E942F0980EE92E00E94E80760ED77E009
:1028E00080E090E00E945E020E948608712C2E9685
:1028F0001FAE2E972F961FAE2F97612C60961FAE9E
:10290000609761961FAE619762961FAE629763965D
:102910001FAE639740CBF894A89584B7877F84BF98
:1029200080916000886180936000109260007894CC
:10293000E9E3F3E01082319683E0E937F807D1F755
:1029400080E490E029EB33E0F901E81BF90B1082F9
:102950000197D1F70895DC01CB01FC01F999FECF75
:1029600006C0F2BDE1BDF89A319600B40D92415017
:102970005040B8F70895DC01A40FB51F41505040F6
:1029800048F0CB01840F951F2E910E94CC1441502A
:102990005040D0F70895262FF999FECF92BD81BD02
:1029A000F89A019700B4021639F01FBA20BD0FB68D
:1029B000F894FA9AF99A0FBE08955058BB27AA279F
:1029C0000E94F5140C9468160E945A1638F00E9462
:1029D000611620F039F49F3F19F426F40C94571631
:1029E0000EF4E095E7FB0C945116E92F0E9479163E
:1029F00058F3BA17620773078407950720F079F434
:102A0000A6F50C949B160EF4E0950B2EBA2FA02D74
:102A10000B01B90190010C01CA01A0011124FF278B
:102A2000591B99F0593F50F4503E68F11A16F04086
:102A3000A22F232F342F4427585FF3CF4695379585
:102A40002795A795F0405395C9F77EF41F16BA0B4A
:102A5000620B730B840BBAF09150A1F0FF0FBB1FF8
:102A6000661F771F881FC2F70EC0BA0F621F731F41
:102A7000841F48F4879577956795B795F7959E3F9E
:102A800008F0B0CF9395880F08F09927EE0F97952F
:102A9000879508950E942D1608F481E008950E94FC
:102AA00063150C9468160E94611658F00E945A161D
:102AB00040F029F45F3F29F00C94511651110C9409
:102AC0009C160C9457160E94791668F39923B1F35B
:102AD000552391F3951B550BBB27AA276217730744
:102AE000840738F09F5F5F4F220F331F441FAA1FD8
:102AF000A9F335D00E2E3AF0E0E832D09150504094
:102B0000E695001CCAF72BD0FE2F29D0660F771F41
:102B1000881FBB1F261737074807AB07B0E809F027
:102B2000BB0B802DBF01FF2793585F4F3AF09E3FAC
:102B3000510578F00C9451160C949C165F3FE4F309
:102B4000983ED4F3869577956795B795F7959F5FEF
:102B5000C9F7880F911D9695879597F90895E1E03B
:102B6000660F771F881FBB1F621773078407BA079A
:102B700020F0621B730B840BBA0BEE1F88F7E095F5
:102B800008950E94811688F09F5798F0B92F9927D1
:102B9000B751B0F0E1F0660F771F881F991F1AF048
:102BA000BA95C9F714C0B13091F00E949B16B1E0FC
:102BB00008950C949B16672F782F8827B85F39F0FB
:102BC000B93FCCF3869577956795B395D9F73EF4E1
:102BD00090958095709561957F4F8F4F9F4F089589
:102BE000E89409C097FB3EF49095809570956195A7
:102BF0007F4F8F4F9F4F9923A9F0F92F96E9BB275D
:102C00009395F695879577956795B795F111F8CFD8
:102C1000FAF4BB0F11F460FF1BC06F5F7F4F8F4F43
:102C20009F4F16C0882311F096E911C0772321F039
:102C30009EE8872F762F05C0662371F096E8862FD1
:102C400070E060E02AF09A95660F771F881FDAF728
:102C5000880F9695879597F90895990F0008550F55
:102C6000AA0BE0E8FEEF16161706E807F907C0F012
:102C700012161306E407F50798F0621B730B840B1A
:102C8000950B39F40A2661F0232B242B252B21F4F4
:102C900008950A2609F4A140A6958FEF811D811D94
:102CA000089597F99F6780E870E060E008959FEFCE
:102CB00080EC089500240A941616170618060906D3
:102CC000089500240A9412161306140605060895A2
:102CD000092E0394000C11F4882352F0BB0F40F42A
:102CE000BF2B11F460FF04C06F5F7F4F8F4F9F4F6A
:102CF000089557FD9058440F551F59F05F3F71F0EC
:102D00004795880F97FB991F61F09F3F79F0879552
:102D10000895121613061406551FF2CF4695F1DFDB
:102D200008C0161617061806991FF1CF869571056B
:102D3000610508940895E894BB2766277727CB019F
:102D400097F908950E942D1608F48FEF08950E94B8
:102D5000BA160C9468160E945A1638F00E94611632
:102D600020F0952311F00C9451160C945716112451
:102D70000C949C160E94791670F3959FC1F3950FE1
:102D800050E0551F629FF001729FBB27F00DB11DEF
:102D9000639FAA27F00DB11DAA1F649F6627B00D7F
:102DA000A11D661F829F2227B00DA11D621F739F68
:102DB000B00DA11D621F839FA00D611D221F749F76
:102DC0003327A00D611D231F849F600D211D822FBD
:102DD000762F6A2F11249F5750409AF0F1F08823E4
:102DE0004AF0EE0FFF1FBB1F661F771F881F915011
:102DF0005040A9F79E3F510580F00C9451160C9459
:102E00009C165F3FE4F3983ED4F3869577956795DB
:102E1000B795F795E7959F5FC1F7FE2B880F911D3A
:102E20009695879597F908950E942D16880B990B12
:102E30000895A1E21A2EAA1BBB1BFD010DC0AA1FFB
:102E4000BB1FEE1FFF1FA217B307E407F50720F013
:102E5000A21BB30BE40BF50B661F771F881F991F8E
:102E60001A9469F760957095809590959B01AC01D7
:102E7000BD01CF010895A29FB001B39FC001A39FE0
:102E8000700D811D1124911DB29F700D811D1124A3
:102E9000911D0895DF93CF931F930F939A9DF02D6B
:102EA000219FF00D8B9DF00D8A9DE02DF10D039F6C
:102EB000F00D029FE00DF11D4E9DE00DF11D5E9D98
:102EC000F00D4F9DF00D7F936F93BF92AF925F9384
:102ED0004F93D5010E943B178B01AC01D7010E9493
:102EE0003B17EB01E80FF91FD6010E9499172F91AC
:102EF0003F91D6010E943B17C60FD71FE81FF91F4D
:102F0000AF91BF910E9499172F913F910E943B175B
:102F1000C60FD71FE81FF91FD6010E943B17E60F07
:102F2000F71F9801BE01CF010F911F91CF91DF9143
:102F300008950E943B17460F571FC81FD91F08F45A
:102F400031960895689401C0E8948F929F92CF9330
:102F5000DF930E94B017DF91CF919F908F900895DB
:102F600088249924F401E401B0E49F93AA279A15D8
:102F70008B049C04ED05FE05CF05D007A10798F44E
:102F8000AD2FDC2FCF2FFE2FE92D982C892E982FD7
:102F9000872F762F652F542F432F322F2227B8509B
:102FA00031F7BF9127C01B2EBF91BB27220F331FC4
:102FB000441F551F661F771F881F991F881C991C67
:102FC000EE1FFF1FCC1FDD1FAA1FBB1F8A149B040F
:102FD000EC05FD05CE05DF05A007B10748F08A180E
:102FE0009B08EC09FD09CE09DF09A00BB10B21609C
:102FF0001A94E1F62EF49401AF01BE01CD01000C4C
:103000000895002E083090F0982F872F762F652F87
:10301000542F432F322F22270850F4CF220F331F73
:10302000441F551F661F771F881F991F0A95B2F707
:10303000002D089597FD1094002E083098F0085048
:10304000232F342F452F562F672F782F892F912D1F
:10305000F4CF1594979587957795679557954795EC
:10306000379527950A95AAF71124002D08952A0D62
:103070003B1D4C1D5D1D6E1D7F1D801F911F089502
:103080002A193B094C095D096E097F09800B910BD8
:1030900008952A153B054C055D056E057F058007E3
:1030A00091070895EE0FFF1F0590F491E02D09940C
:1030B0000F931F93CF93DF938230910510F482E03A
:1030C00090E0E0915604F091570430E020E0B0E049
:1030D000A0E0309799F42115310509F44AC0281B66
:1030E000390B24303105D8F58A819B816115710532
:1030F00089F1FB0193838283FE0111C040815181DC
:103100000281138148175907E0F04817590799F4CD
:10311000109761F012960C93129713961C933296A7
:10312000CF01DF91CF911F910F9108950093560425
:1031300010935704F4CF2115310551F0421753076E
:1031400038F0A901DB019A01BD01DF01F801C1CF0F
:10315000EF01F9CF9093570480935604CDCFFE0131
:10316000E20FF31F81939193225031093983288311
:10317000D7CF2091540430915504232B41F4209152
:103180001F01309120013093550420935404209165
:103190001D0130911E012115310541F42DB73EB7B7
:1031A0004091210150912201241B350BE0915404E0
:1031B000F0915504E217F307A0F42E1B3F0B2817DC
:1031C000390778F0AC014E5F5F4F2417350748F0A0
:1031D0004E0F5F1F50935504409354048193919375
:1031E0009FCFF0E0E0E09CCFCF93DF930097E9F032
:1031F000FC01329713821282A0915604B0915704B9
:10320000ED0130E020E01097A1F420813181820FA0
:10321000931F20915404309155042817390709F061
:1032200061C0F0935504E0935404DF91CF91089569
:10323000EA01CE17DF07E8F54A815B819E0141155F
:103240005105B1F7E901FB83EA8349915991C40F14
:10325000D51FEC17FD0761F4808191810296840FE0
:10326000951FE90199838883828193819B838A8357
:10327000F0E0E0E012968D919C9113970097B9F5DC
:103280002D913C911197CD010296820F931F2091B1
:103290005404309155042817390739F6309751F501
:1032A0001092570410925604B0935504A0935404FE
:1032B000BCCFD383C28340815181840F951FC8172F
:1032C000D90761F44E5F5F4F88819981480F591F7C
:1032D000518340838A819B819383828321153105A9
:1032E00009F0B0CFF0935704E09356049ECFFD0150
:1032F000DC01C0CF13821282D7CF81E090E0F89436
:103300000C948B19FB01DC018D9101908019011047
:10331000D9F3990B089510E0C8EED0E004C0FE0187
:103320000E9452182196C93ED107C9F7F894FFCFE1
:1033300004041511111B0E0001010F0E0C131211C4
:10334000103132333435363738392A3023000058BB
:10335000048000000000008106A50A7E067E069615
:103360000A6A056905600500000000000000000011
:1033700000000000000087000000000000000000C6
:10338000000000000000002B7E151628AED2A6AB70
:10339000F7158809CF4F3C000000003502F501C445
:1033A00001000000003E093F046D046C046E616E74
:1033B00000696E66006F766600546F6B656E3A202A
:1033C00000202020454550524F4D20524541442079
:1033D00020004552524F522E205265737461727410
:1033E00020210020526520496E697469616C697AF8
:1033F00065202000454570726F6D20746F20526506
:103400007573652E00206B57682000496D70200091
:10341000556E697473204578686175737465642EA0
:10342000004C6F772042616C20526563686172675F
:10343000650020496D70005375636365737366752D
:103440006C2E0043616E6E6F74205265636861720A
:10345000676500746F2045786365737320556E69E6
:10346000747321004D45544552204C4F434B454405
:10347000202100206B5768202020200020546F6BF3
:10348000656E20496E76616C696420210041747418
:10349000656D707473206C6566743A200020456E0B
:1034A0007465722050617373776F72643A004D6572
:1034B0007465722049643A2000536C204E6F2E20B0
:1034C0000057726F6E672050617373776F7264205C
:1034D0002100536572766F546573742E2070696E87
:1034E0003A0050617373776F726420436F72726534
:1034F0006374004D63622054657374696E672E2E89
:103500002E004F7574204F662052616E67652E0045
:10351000436865636B20546F6B656E204E6F203F70
:103520000031393337353034323638313539333587
:02353000370062
:00000001FF
