:020000040000FA
:100000000C94BC000C94E4000C94E4000C94E40008
:100010000C94E4000C94E4000C945A050C94E40055
:100020000C94E4000C94E4000C94E4000C94E400C0
:100030000C94E4000C94E4000C94E4000C94E400B0
:100040000C94B8040C94E4000C9428050C9402055C
:100050000C94E4000C94E4000C94E4000C94E40090
:100060000C94E4000C94E400000102040810204009
:10007000801B36637C777BF26B6FC53001672BFE8C
:10008000D7AB76CA82C97DFA5947F0ADD4A2AF9CEE
:10009000A472C0B7FD9326363FF7CC34A5E5F171C5
:1000A000D8311504C723C31896059A071280E2EBCE
:1000B00027B27509832C1A1B6E5AA0523BD6B3295E
:1000C000E32F8453D100ED20FCB15B6ACBBE394AEB
:1000D0004C58CFD0EFAAFB434D338545F9027F50F2
:1000E0003C9FA851A3408F929D38F5BCB6DA2110F1
:1000F000FFF3D2CD0C13EC5F974417C4A77E3D6489
:100100005D197360814FDC222A908846EEB814DEB8
:100110005E0BDBE0323A0A4906245CC2D3AC629142
:1001200095E479E7C8376D8DD54EA96C56F4EA652C
:100130007AAE08BA78252E1CA6B4C6E8DD741F4B2B
:10014000BD8B8A703EB5664803F60E613557B98699
:10015000C11D9EE1F8981169D98E949B1E87E9CE46
:100160005528DF8CA1890DBFE6426841992D0FB05B
:1001700054BB1600D705370811241FBECFEFD8E0B7
:10018000DEBFCDBF11E0A0E0B1E0E8E3F4E102C0E2
:1001900005900D92A43EB107D9F723E0A4EEB1E09B
:1001A00001C01D92A732B207E1F710E0CBEBD0E01F
:1001B00004C02197FE010E94DF08CA3BD107C9F79E
:1001C0000E9424060C940F0A0C940000CF93DF9336
:1001D000FB01DA01EC019B01205F3F4F91918D9172
:1001E00098279993E217F307C9F7DF91CF91089504
:1001F000FC0180E1815058F020E009F021819191CB
:10020000990F27FD9160DF0111979C93F3CF08951B
:10021000AF92BF92CF92DF92EF92FF920F931F9314
:10022000CF93DF936C017B018B01040F151FEB0152
:100230005E01AE18BF08C017D10759F06991D60109
:10024000ED91FC910190F081E02DC6010995892B7B
:1002500079F7C501DF91CF911F910F91FF90EF903A
:10026000DF90CF90BF90AF900895FC01538D448DE7
:10027000252F30E0842F90E0821B930B541710F051
:10028000CF96089501970895FC01918D828D98175E
:1002900061F0A28DAE0FBF2FB11D5D968C91928D36
:1002A0009F5F9F73928F90E008958FEF9FEF089567
:1002B000FC01918D828D981731F0828DE80FF11D30
:1002C000858D90E008958FEF9FEF0895FC01918D4B
:1002D000228D892F90E0805C9F4F821B91098F7344
:1002E0009927089582EF91E00E94660121E0892B11
:1002F00009F420E0822F089580E090E0892B29F016
:100300000E94720181110C9400000895FC01A48DDB
:10031000A80FB92FB11DA35ABF4F2C91848D90E027
:1003200001968F739927848FA689B7892C93A0890A
:10033000B1898C91837080648C93938D848D981394
:1003400006C00288F389E02D80818F7D8083089527
:10035000EF92FF920F931F93CF93DF93EC0181E015
:10036000888F9B8D8C8D98131AC0E889F9898081BC
:1003700085FF15C09FB7F894EE89FF896083E889EF
:10038000F98980818370806480839FBF81E090E0E1
:10039000DF91CF911F910F91FF90EF900895F62E6E
:1003A0000B8D10E00F5F1F4F0F731127E02E8C8D08
:1003B0008E110CC00FB607FCFACFE889F98980814D
:1003C00085FFF5CFCE010E948601F1CFEB8DEC0FBA
:1003D000FD2FF11DE35AFF4FF0829FB7F8940B8F6A
:1003E000EA89FB8980818062CFCFCF93DF93EC01D4
:1003F000888D8823B9F0AA89BB89E889F9898C910D
:1004000085FD03C0808186FD0DC00FB607FCF7CFC8
:100410008C9185FFF2CF808185FFEDCFCE010E94C8
:100420008601E9CFDF91CF910895CF93DF93DC016F
:10043000EB01E981F0E0ED58FF4F9491E42FF0E0FB
:10044000E859FF4FE491E927EC93EA81F0E0ED5899
:10045000FF4FE4911196EC931197EB81F0E0ED588A
:10046000FF4FE4911296EC931297E881F0E0ED587B
:10047000FF4FE4911396EC93DF91CF910895CF93C2
:10048000DF93FC01EB015881B9819A812B81652FA3
:1004900070E0660F771F3BE1379F802D112468279E
:1004A000CB2FD0E0CC0FDD1F3D9F402D1124AC2F72
:1004B000A427C92FD0E0CC0FDD1F3D9F702D112444
:1004C0007C27C22FD0E0CC0FDD1F3D9F302D1124A3
:1004D0003C278B2F8927822786278A278083452FD1
:1004E000492742274A27472741835B272527272774
:1004F000232722839527962793279383DF91CF91F4
:100500000895CF93DF93DC01EB01E881F0E0ED5833
:10051000FF4FE491EC93ED81F0E0ED58FF4FE49153
:100520001196EC931197EA85F0E0ED58FF4FE491B6
:100530001296EC931297EF85F0E0ED58FF4FE4919F
:100540001396EC931397EC81F0E0ED58FF4FE49194
:100550001496EC931497E985F0E0ED58FF4FE49181
:100560001596EC931597EE85F0E0ED58FF4FE4916A
:100570001696EC931697EB81F0E0ED58FF4FE4915F
:100580001796EC931797E885F0E0ED58FF4FE4914C
:100590001896EC931897ED85F0E0ED58FF4FE49135
:1005A0001996EC931997EA81F0E0ED58FF4FE4912A
:1005B0001A96EC931A97EF81F0E0ED58FF4FE49113
:1005C0001B96EC931B97EC85F0E0ED58FF4FE49100
:1005D0001C96EC931C97E981F0E0ED58FF4FE491F5
:1005E0001D96EC931D97EE81F0E0ED58FF4FE491DE
:1005F0001E96EC931E97EB85F0E0ED58FF4FE491CB
:100600001F96EC93DF91CF910895FC0132964296AC
:1006100010823196E817F907D9F708950895BF9227
:10062000CF92DF92EF92FF920F931F93CF93DF93BE
:10063000CDB7DEB7E4970FB6F894DEBF0FBECDBFDF
:100640007B0120E1FC013296DE01119601900D92B2
:100650002A95E1F7FA018E010F5F1F4F405F5F4F50
:10066000BE016F5E7F4F98018191D9019D919D01DF
:100670008927DB018D93BD01E417F507A9F7BB249A
:10068000B39481E1C82ED12CCC0EDD1EB0E1CB0E8F
:10069000D11C4B2DBE01635F7F4FCE01C1960E94DE
:1006A0001502398189A9382739832A818AA92827FF
:1006B0002A839B818BA998279B838C814CA98427B3
:1006C0008C834D8134273D834E8124272E834F8197
:1006D00094279F83488584278887498534273987CD
:1006E0004A8524272A874B8594279B874C85842716
:1006F0008C874D8534273D873E8523272E872F8580
:1007000092279F8798898927888BBE016F5E7F4FCC
:10071000CE0181960E948102BE016F5D7F4FCE01A6
:1007200041960E943F02BE016B5D7F4FCE01459610
:100730000E943F02BE01675D7F4FCE0149960E9435
:100740003F02BE01635D7F4FCE014D960E943F0286
:10075000AE014F5F5F4FFE0171968191DA019D916D
:10076000AD019F01215031098927D9018C93EC15E6
:10077000FD0599F7B394BAE0BB128BCF4AE0BE01F6
:10078000635F7F4FCE01C1960E941502398189A90E
:10079000382739832A818AA928272A839B818BA914
:1007A00098279B838C814CA984278C834D81342787
:1007B0003D834E8124272E834F8194279F83488534
:1007C000842788874985342739874A8524272A87BB
:1007D0004B8594279B874C8584278C874D853427B0
:1007E0003D873E8523272E872F8592279F879889CF
:1007F0008927888BBE016F5E7F4FCE0181960E9454
:100800008102AE014F5D5F4FD7019701205F3F4FDF
:10081000FA018191AF01F80191918F0189278D93A0
:10082000A217B307A9F7E4960FB6F894DEBF0FBE80
:10083000CDBFDF91CF911F910F91FF90EF90DF908F
:10084000CF90BF90089580E190E00895FC0132962A
:100850004296108231968E179F07D9F70895FC01B2
:1008600001900020E9F73197AF01481B590BBC01FB
:1008700082EF91E00C9408018F929F92AF92BF9209
:100880000F931F93CF93DF93CDB7DEB7A1970FB62A
:10089000F894DEBF0FBECDBF19A2423008F44AE083
:1008A0008E010F5D1F4F842E912CB12CA12CA50120
:1008B00094010E945708E62FB901CA01EA30F4F406
:1008C000E05DD801EE938D01232B242B252B79F7A6
:1008D00090E080E0109719F0CD010E942F04A196BE
:1008E0000FB6F894DEBF0FBECDBFDF91CF911F9141
:1008F0000F91BF90AF909F908F900895E95CE1CFEA
:10090000CF93DF930E942F04EC018CE591E00E94CD
:100910002F048C0F9D1FDF91CF910895CF93DF930C
:1009200040E10E943C04EC018CE591E00E942F0420
:100930008C0F9D1FDF91CF9108950E940A0A4031CC
:10094000510551F4DC01129680E1FB0101900D92FA
:100950008A95E1F781E0089580E00895CF93DF93D1
:10096000EC010E942604CE01DF91CF910C94810905
:100970001F920F920FB60F9211242F933F938F93D4
:100980009F93AF93BF938091EE019091EF01A0915F
:10099000F001B091F1013091ED0123E0230F2D37EB
:1009A00058F50196A11DB11D2093ED018093EE0134
:1009B0009093EF01A093F001B093F1018091E901D0
:1009C0009091EA01A091EB01B091EC010196A11D7B
:1009D000B11D8093E9019093EA01A093EB01B093DC
:1009E000EC01BF91AF919F918F913F912F910F900B
:1009F0000FBE0F901F90189526E8230F0296A11D99
:100A0000B11DD2CF1F920F920FB60F9211242F93C8
:100A10003F934F935F936F937F938F939F93AF9386
:100A2000BF93EF93FF9382EF91E00E948601FF91C5
:100A3000EF91BF91AF919F918F917F916F915F9156
:100A40004F913F912F910F900FBE0F901F901895CF
:100A50001F920F920FB60F9211242F938F939F9393
:100A6000EF93FF93E0910202F09103028081E09105
:100A70000802F091090282FD1BC0908180910B0257
:100A80008F5F8F7320910C02821741F0E0910B026F
:100A9000F0E0EE50FE4F958F80930B02FF91EF91A7
:100AA0009F918F912F910F900FBE0F901F901895CF
:100AB0008081F4CF1F920F920FB60F9211242F93C3
:100AC0004F935F936F937F938F939F93AF93BF9356
:100AD000209184008091E5019091E601A091E701C9
:100AE000B091E801820F911DA11DB11D8093E50118
:100AF0009093E601A093E701B093E8018091E501AE
:100B00009091E601A091E701B091E8014091E501E3
:100B10005091E6016091E7017091E8012AE0880FA9
:100B2000991FAA1FBB1F2A95D1F7840F951FA61FD7
:100B3000B71F8093E5019093E601A093E701B0937E
:100B4000E8018091E5019091E601A091E701B09163
:100B5000E8014091E5015091E6016091E701709153
:100B6000E80126E0B695A795979587952A95D1F740
:100B700084279527A627B7278093E5019093E60160
:100B8000A093E701B093E8018091E4018F5F809327
:100B9000E401BF91AF919F918F917F916F915F9190
:100BA0004F912F910F900FBE0F901F901895E2EF6D
:100BB000F1E01382128288EE93E0A0E0B0E084833B
:100BC0009583A683B7838EE491E09183808385EC3F
:100BD00090E09587848784EC90E09787868780EC07
:100BE00090E0918B808B81EC90E0938B828B82ECF8
:100BF00090E0958B848B86EC90E0978B868B118EA2
:100C0000128E138E148EEFE0F3E0108281818078D3
:100C100080628F77818310921103109212031092D9
:100C200013031092140380E89EEEA6E3B0E08093D5
:100C3000150390931603A0931703B0931803109213
:100C40002103109222030895CF93DF93CDB7DEB72F
:100C5000C456D1090FB6F894DEBF0FBECDBF78944D
:100C600084B5826084BD84B5816084BD85B58260B1
:100C700085BD85B5816085BD80916E008160809362
:100C80006E001092810080918100826080938100CB
:100C900080918100816080938100809180008160DB
:100CA000809380008091B10084608093B100809136
:100CB000B00081608093B00080917A00846080935E
:100CC0007A0080917A00826080937A0080917A0025
:100CD000816080937A0080917A00806880937A00A6
:100CE0001092C100E0910202F091030282E0808341
:100CF000E091FE01F091FF011082E0910002F0917D
:100D000001028FEC808310920A02E0910602F091BA
:100D1000070286E08083E0910402F0910502808161
:100D200080618083E0910402F091050280818860F7
:100D30008083E0910402F0910502808180688083C5
:100D4000E0910402F091050280818F7D808381EF24
:100D50006B968FAF6B9788E96C968FAF6C978FE728
:100D60006D968FAF6D978CEF6E968FAF6E978AE012
:100D700091E099AF88AFCE01C8969A83898340E10C
:100D800050E06AE371E00E949F044E013AE4830E52
:100D9000911CC401409684011401D8011D928D015B
:100DA0008A179B07D1F789819A81DC01ED91FC912B
:100DB0000284F385E02D4AE251E0B40109953E0139
:100DC000B3E06B0E711CD301F401730181918D931B
:100DD0000E171F07D9F7C3010E94F800F4018081A4
:100DE00087FF06C04AE151E0B301C3010E94E6005B
:100DF0008E010D5E1F4F2301D2018D912D011F9693
:100E00008C931F97A017B107B9F7CD010E94F80086
:100E10008B8187FF06C04AE151E0B201C2010E9406
:100E2000E600FE01E65AFF4F90E080E020E88430C3
:100E300091050CF00FC13081D4013C93319601969D
:100E4000BFEF8B1A9B0A8031910589F7A801B10188
:100E5000C1010E94E600F30111923F01E415F5057E
:100E6000D1F7A701B101C8010E94E60089819A81EA
:100E7000DC01ED91FC910284F385E02DA801B10124
:100E80000995F10160817181828193810E947908C5
:100E90001B012C018FE591E00E942F041FAACE01B7
:100EA000C796A5969FAF8EAFA59793E16F969FAF1C
:100EB0006F979CE1892E22E8922EAAE9A096AFAF07
:100EC000A097B5E9A196BFAFA197ECEFA296EFAFBF
:100ED000A297FFE7A396FFAFA39738E9632E41EFF0
:100EE000742E6F963FAD6F9731506F963FAF6F97EF
:100EF0008AE0A82EB12CC12CD12CE12CF12C00E0E1
:100F000010E09401A0964FADA097A1965FADA19778
:100F1000A2966FADA297A3967FADA397C3010E943F
:100F20008008205DA596AEADBFADA5972E93A59682
:100F3000BFAFAEAFA5979401A0964FADA097A19675
:100F40005FADA197A2966FADA297A3967FADA39731
:100F5000C3010E9482084901A0964FAFA097A196B5
:100F60005FAFA197A2966FAFA297A3967FAFA3970B
:100F70003C016F96BFAD6F97BF3F09F0B2CFCE0176
:100F800083960E94800487E691E00E942F046CEF14
:100F90007FE788E991EF0E948E0483E791E00E9449
:100FA0002F046CE172E88AE995E90E948E0484E8D6
:100FB00091E00E942F04C201B1010E948E04ECE175
:100FC0002E16E2E83E06EAE94E06E5E95E0609F07D
:100FD00049C087E991E00E9480048EEA91E00E9476
:100FE0002F044AE06FE070E080E090E00E943C0453
:100FF0008CE591E00E942F0489EB91E00E942F0480
:101000004AE067E879E180E090E00E943C048CE5EA
:1010100091E00E942F0482EC91E00E942F044AE0AC
:101020006FEF73E080E090E00E943C048CE591E07B
:101030000E942F04CE01C8960E94260400E010E012
:1010400001151105E9F30E9472018823C9F30E947A
:101050000000F6CFD4018430910511F42C93EFCE2B
:101060001C92EDCE8DEC91E00E948004E3CFF894C9
:10107000A89584B7877F84BF809160008861809342
:101080006000109260007894EFE8F2E010823196F0
:1010900082E0EF3CF807D1F780E490E02FE033E006
:1010A000F901E81BF90B10820197D1F70895A1E22D
:1010B0001A2EAA1BBB1BFD010DC0AA1FBB1FEE1FD2
:1010C000FF1FA217B307E407F50720F0A21BB30B1D
:1010D000E40BF50B661F771F881F991F1A9469F799
:1010E00060957095809590959B01AC01BD01CF01F5
:1010F00008956927962769277827872778270895ED
:10110000689401C0E8948F929F92CF93DF930E94DE
:101110008E08DF91CF919F908F9008958824992415
:10112000F401E401B0E49F93AA279A158B049C0470
:10113000ED05FE05CF05D007A10798F4AD2FDC2FF4
:10114000CF2FFE2FE92D982C892E982F872F762FC1
:10115000652F542F432F322F2227B85031F7BF91DC
:1011600027C01B2EBF91BB27220F331F441F551FC3
:10117000661F771F881F991F881C991CEE1FFF1F71
:10118000CC1FDD1FAA1FBB1F8A149B04EC05FD05A5
:10119000CE05DF05A007B10748F08A189B08EC09C7
:1011A000FD09CE09DF09A00BB10B21601A94E1F60D
:1011B0002EF49401AF01BE01CD01000C0895EE0F95
:1011C000FF1F0590F491E02D09940F931F93CF9387
:1011D000DF938230910510F482E090E0E0912503E6
:1011E000F091260330E020E0B0E0A0E0309799F4E1
:1011F0002115310509F44AC0281B390B243031056B
:10120000D8F58A819B816115710589F1FB01938372
:101210008283FE0111C040815181028113814817F0
:101220005907E0F04817590799F4109761F01296A2
:101230000C93129713961C933296CF01DF91CF91A6
:101240001F910F9108950093250310932603F4CF67
:101250002115310551F04217530738F0A901DB0180
:101260009A01BD01DF01F801C1CFEF01F9CF9093E1
:10127000260380932503CDCFFE01E20FF31F819358
:1012800091932250310939832883D7CF20912303AA
:1012900030912403232B41F420910201309103016A
:1012A0003093240320932303209100013091010106
:1012B0002115310541F42DB73EB7409104015091FD
:1012C0000501241B350BE0912303F0912403E21761
:1012D000F307A0F42E1B3F0B2817390778F0AC0159
:1012E0004E5F5F4F2417350748F04E0F5F1F509336
:1012F000240340932303819391939FCFF0E0E0E098
:101300009CCFCF93DF930097E9F0FC0132971382D3
:101310001282A0912503B0912603ED0130E020E078
:101320001097A1F420813181820F931F2091230314
:10133000309124032817390709F061C0F093240382
:10134000E0932303DF91CF910895EA01CE17DF07E1
:10135000E8F54A815B819E0141155105B1F7E9012C
:10136000FB83EA8349915991C40FD51FEC17FD0700
:1013700061F4808191810296840F951FE901998320
:101380008883828193819B838A83F0E0E0E01296D8
:101390008D919C9113970097B9F52D913C911197E0
:1013A000CD010296820F931F2091230330912403D5
:1013B0002817390739F6309751F510922603109205
:1013C0002503B0932403A0932303BCCFD383C2830C
:1013D00040815181840F951FC817D90761F44E5F72
:1013E0005F4F88819981480F591F518340838A81BB
:1013F0009B81938382832115310509F0B0CFF0934F
:101400002603E09325039ECFFD01DC01C0CF1382AC
:101410001282D7CF81E090E0F8940C940F0A10E08C
:10142000CBEBD0E004C0FE010E94DF082196CC3B4C
:10143000D107C9F7F894FFCF000027038000000010
:1014400000002604AE04230423049F040F030E03AC
:101450000503000000000000000000000000000084
:1014600000870000000000000000000000000000F5
:1014700000002B7E151628AED2A6ABF7158809CF33
:101480004F3C00000000A80108013501F50166018C
:10149000440158010D0A00544F4B454E3A20004D6F
:1014A0004553534147453A2030780052656365699A
:1014B000766564204D41433A2030780043616C6387
:1014C000756C61746564204D41433A203078004169
:1014D000555448454E5449434154494F4E20535565
:1014E0004343455353004D657465722049443A2087
:1014F0000053657269616C3A2000526563686172DD
:1015000067653A200041555448454E54494341547B
:0C151000494F4E204641494C4544000024
:107800000C94343C0C94513C0C94513C0C94513CE1
:107810000C94513C0C94513C0C94513C0C94513CB4
:107820000C94513C0C94513C0C94513C0C94513CA4
:107830000C94513C0C94513C0C94513C0C94513C94
:107840000C94513C0C94513C0C94513C0C94513C84
:107850000C94513C0C94513C0C94513C0C94513C74
:107860000C94513C0C94513C11241FBECFEFD8E036
:10787000DEBFCDBF11E0A0E0B1E0ECE9FFE702C060
:1078800005900D92A230B107D9F712E0A2E0B1E065
:1078900001C01D92AD30B107E1F70E942D3D0C945F
:1078A000CC3F0C94003C982F959595959595959582
:1078B000905D8F708A307CF0282F295A8091C0000B
:1078C00085FFFCCF9093C6008091C00085FFFCCF60
:1078D0002093C6000895282F205DF0CF982F809127
:1078E000C00085FFFCCF9093C6000895EF92FF92F1
:1078F0000F931F93EE24FF2487018091C00087FD22
:1079000017C00894E11CF11C011D111D81E4E8164B
:1079100082E4F8068FE0080780E0180770F3E09132
:107920000401F091050109958091C00087FFE9CF1E
:107930008091C6001F910F91FF90EF9008950E94D3
:10794000763C982F8091C00085FFFCCF9093C600B5
:1079500091362CF490330CF09053892F089597555D
:10796000892F08951F930E949F3C182F0E949F3CCF
:107970001295107F810F1F9108951F93182F882350
:1079800021F00E94763C1150E1F71F9108951F935A
:10799000182F0E94763C803249F0809103018F5F5E
:1079A000809303018530C1F01F9108958091C0003C
:1079B00085FFFCCF84E18093C6008091C00085FFE5
:1079C000FCCF1093C6008091C00085FFFCCF80E102
:1079D0008093C6001F910895E0910401F091050184
:1079E00009951F9108950E94763C803241F0809164
:1079F00003018F5F80930301853081F008958091AA
:107A0000C00085FFFCCF84E18093C6008091C00058
:107A100085FFFCCF80E18093C6000895E0910401CA
:107A2000F09105010995089540E951E08823A1F0FE
:107A30002D9A28EE33E0FA013197F1F721503040CA
:107A4000D1F72D9828EE33E0FA013197F1F7215064
:107A50003040D1F7815061F708953F924F925F9285
:107A60006F927F928F929F92AF92BF92CF92DF924E
:107A7000EF92FF920F931F93CF93DF93000080E16B
:107A80008093C4001092C50088E18093C10086E015
:107A90008093C2005098589A259A81E00E94143D24
:107AA00024E1F22E9EE1E92E85E9D82E0FE0C02ECA
:107AB00010E1B12EAA24A394B1E49B2EA6E58A2E50
:107AC000F2E57F2EE0E26E2E79E4572E63E5462E36
:107AD00050E5352E0E94763C8033B1F18133B9F107
:107AE000803409F46FC0813409F476C0823409F41B
:107AF00085C0853409F488C0803531F1823521F1A3
:107B0000813511F1853509F485C0863509F48DC0BC
:107B1000843609F496C0843709F403C1853709F423
:107B200072C1863709F466C0809103018F5F80932C
:107B30000301853079F6E0910401F0910501099582
:107B40000E94763C803351F60E94F33CC3CF0E94E2
:107B5000763C803249F78091C00085FFFCCFF092DF
:107B6000C6008091C00085FFFCCF9092C600809136
:107B7000C00085FFFCCF8092C6008091C00085FFC9
:107B8000FCCF7092C6008091C00085FFFCCF609250
:107B9000C6008091C00085FFFCCF5092C600809146
:107BA000C00085FFFCCF4092C6008091C00085FFD9
:107BB000FCCF3092C6008091C00085FFFCCFB09210
:107BC000C60088CF0E94763C863808F4BDCF0E945C
:107BD000763C0E94F33C7ECF0E94763C803809F4CC
:107BE0009CC0813809F40BC1823809F43CC1883942
:107BF00009F48FC080E00E94C73C6CCF84E10E94F2
:107C0000BD3C0E94F33C66CF85E00E94BD3C0E94D3
:107C1000F33C60CF0E94763C809306010E94763C44
:107C2000809307010E94F33C55CF0E94763C80333D
:107C300009F41DC183E00E94BD3C80E00E94C73C66
:107C400049CF0E94763C809309020E94763C809343
:107C5000080280910C028E7F80930C020E94763C79
:107C6000853409F415C18091080290910902892B8D
:107C700089F000E010E00E94763CF801E85FFE4FDA
:107C800080830F5F1F4F80910802909109020817AF
:107C9000190788F30E94763C803209F045CF809125
:107CA0000C0280FF01C16091060170910701660F0F
:107CB000771F7093070160930601A0910802B091AD
:107CC00009021097C9F0E8E0F1E09B01AD014E0F09
:107CD0005F1FF999FECF32BD21BD819180BDFA9A17
:107CE000F99A2F5F3F4FE417F50799F76A0F7B1F4B
:107CF00070930701609306018091C00085FFFCCF5F
:107D0000F092C6008091C00085FFFCCFB092C60003
:107D1000E1CE83E00E94C73CDDCE82E00E94C73CFA
:107D2000D9CE0E94763C809309020E94763C8093D3
:107D300008028091060190910701880F991F909386
:107D40000701809306010E94763C853409F4A6C0A1
:107D500080910C028E7F80930C020E94763C8032D0
:107D600009F0B8CE8091C00085FFFCCFF092C6002C
:107D7000609108027091090261157105B9F140E046
:107D800050E080910C02A82FA170B82FB27011C0E2
:107D9000BB2309F45CC0E0910601F0910701319624
:107DA000F0930701E09306014F5F5F4F46175707B7
:107DB000E8F4AA2369F3F999FECF209106013091E6
:107DC000070132BD21BDF89A90B58091C00085FFB2
:107DD000FCCF9093C6002F5F3F4F30930701209355
:107DE00006014F5F5F4F4617570718F38091C00099
:107DF00085FDE5CE8091C00085FFF8CFE0CE81E023
:107E00000E94C73C67CE0E94763C803209F08CCE3F
:107E10008091C00085FFFCCFF092C6008091C00029
:107E200085FFFCCFE092C6008091C00085FFFCCFAB
:107E3000D092C6008091C00085FFFCCFC092C600E2
:107E40008091C00085FFFCCFB092C60043CEE09188
:107E50000601F091070194918091C00085FFFCCF4D
:107E60009093C6009CCF80E10E94C73C33CE0E9415
:107E7000763C0E94763C182F0E94763C112309F430
:107E800083C0113009F484C08FE00E94C73C22CE29
:107E900080910C02816080930C02E5CE80910C02EF
:107EA000816080930C0259CF809107018823880F4D
:107EB000880B8A2180930B02809106019091070123
:107EC000880F991F90930701809306018091080203
:107ED00080FF09C080910802909109020196909359
:107EE000090280930802F894F999FECF1127E091D6
:107EF0000601F0910701C8E0D1E08091080290915D
:107F00000902103091F40091570001700130D9F34B
:107F100003E000935700E89500915700017001308D
:107F2000D9F301E100935700E89509901990009169
:107F3000570001700130D9F301E000935700E89534
:107F40001395103498F011270091570001700130FB
:107F5000D9F305E000935700E895009157000170B0
:107F60000130D9F301E100935700E895329602976A
:107F700009F0C7CF103011F00296E5CF112480919F
:107F8000C00085FFB9CEBCCE8EE10E94C73CA2CD19
:0E7F900085E90E94C73C9ECDF894FFCF80008B
:00000001FF
