:100000000C94E9000C94AB0B0C94760B0C9411013E
:100010000C9411010C9411010C94F90A0C94110127
:100020000C9411010C9411010C9411010C94110108
:100030000C9411010C9411010C9411010C941101F8
:100040000C94AF0A0C9411010C9411010C94110141
:100050000C9411010C9411010C9411010C941101D8
:100060000C9411010C9411010001020408102040AD
:10007000801B36637C777BF26B6FC53001672BFE8C
:10008000D7AB76CA82C97DFA5947F0ADD4A2AF9CEE
:10009000A472C0B7FD9326363FF7CC34A5E5F171C5
:1000A000D8311504C723C31896059A071280E2EBCE
:1000B00027B27509832C1A1B6E5AA0523BD6B3295E
:1000C000E32F8453D100ED20FCB15B6ACBBE394AEB
:1000D0004C58CFD0EFAAFB434D338545F9027F50F2
:1000E0003C9FA851A3408F929D38F5BCB6DA2110F1
:1000F000FFF3D2CD0C13EC5F974417C4A77E3D6489
:100100005D197360814FDC222A908846EEB814DEB8
:100110005E0BDBE0323A0A4906245CC2D3AC629142
:1001200095E479E7C8376D8DD54EA96C56F4EA652C
:100130007AAE08BA78252E1CA6B4C6E8DD741F4B2B
:10014000BD8B8A703EB5664803F60E613557B98699
:10015000C11D9EE1F8981169D98E949B1E87E9CE46
:100160005528DF8CA1890DBFE6426841992D0FB05B
:1001700054BB1600000000240027002A00000000E5
:1001800000250028002B0000000000230026002985
:100190000004040404040404040202020202020330
:1001A000030303030301020408102040800102043A
:1001B00008102001020408102000000008000201BD
:1001C0000000030407000000000000000000E30B33
:1001D000CD1311241FBECFEFD8E0DEBFCDBF13E09B
:1001E000A0E0B1E0EEE7F1E302C005900D92A0318E
:1001F000B107D9F724E0A0E1B3E001C01D92A63613
:10020000B207E1F710E0C8EED0E004C02197FE018C
:100210000E947917C73ED107C9F70E947B0C0C9446
:10022000B2180C940000FC01AC01455F5F4F8FEFEA
:100230009FEF2191822728E0BC0161707727969576
:100240008795672B21F031E0832730EA93272150EF
:1002500099F7E417F50769F7089596E0899FD001AB
:100260001124A552BC4F90967C936E935F9791E0BA
:1002700091969C939197E0914804F0914904909154
:100280004704992339F0309751F0811108C08091CB
:10029000F7030994309719F05C968C91FACF089582
:1002A000CF93DF93FB01DA01EC019B01205F3F4F0D
:1002B00091918D9198279993E217F307C9F7DF91F0
:1002C000CF910895FC0180E1815058F020E009F0C1
:1002D00021819191990F27FD9160DF0111979C93E6
:1002E000F3CF0895833081F028F4813099F0823083
:1002F000A9F008958730A9F08830C9F08430B1F4AE
:10030000809180008F7D03C0809180008F778093E3
:100310008000089584B58F7784BD089584B58F7D5E
:10032000FBCF8091B0008F778093B00008958091CB
:10033000B0008F7DF9CFCF93DF93282F30E0F90104
:10034000E754FE4F8491F901EB55FE4FD491F9012A
:10035000EF56FE4FC491CC23A1F081110E9472018F
:10036000EC2FF0E0EE0FFF1FE957FE4FA591B4917F
:10037000EC91ED2381E090E009F480E0DF91CF91F2
:10038000089580E090E0FACF862F0C949B011F9394
:10039000CF93DF93282F30E0F901E754FE4F84918B
:1003A000F901EB55FE4FD491F901EF56FE4FC49180
:1003B000CC23A9F0162F81110E947201EC2FF0E0DE
:1003C000EE0FFF1FE358FE4FA591B4918FB7F8943D
:1003D000EC91111108C0D095DE23DC938FBFDF9123
:1003E000CF911F910895DE2BF8CF862F642F0C94A8
:1003F000C701CF93DF9390E0FC01EB55FE4F2491B2
:100400008F569E4FFC0184918823C9F090E0880F9D
:10041000991FFC01ED58FE4FA591B491FC01E358E2
:10042000FE4FC591D49161110DC09FB7F8948C9186
:10043000209582238C938881282328839FBFDF9176
:10044000CF910895623051F49FB7F8943C91822F78
:10045000809583238C93E8812E2BEFCF8FB7F89470
:10046000EC912E2B2C938FBFEACF862F642F0C9408
:10047000F9013FB7F8948091360390913703A0912A
:100480003803B091390326B5A89B05C02F3F19F05A
:100490000196A11DB11D3FBFBA2FA92F982F882704
:1004A000BC01CD01620F711D811D911D42E0660FDF
:1004B000771F881F991F4A95D1F708958F929F92B1
:1004C000AF92BF92CF92DF92EF92FF924B015C010D
:1004D0000E9439026B017C010E9439026C197D096E
:1004E0008E099F09683E734081059105A8F321E0BC
:1004F000821A9108A108B10888EEC80E83E0D81EC0
:10050000E11CF11C81149104A104B10429F7FF90AE
:10051000EF90DF90CF90BF90AF909F908F90089515
:100520002FB7F894609132037091330380913403B4
:10053000909135032FBF08950F931F93CF93DF93AF
:10054000C82FD62F86E0C89FF0011124E552FC4F3A
:1005500011A2878D90A181309105F1F058F0823081
:100560009105F1F1039709F440C0DF91CF911F91FC
:100570000F9108956623C9F361E070E08C2F0E940B
:100580002D010E9490026093330470933404809391
:10059000350490933604E9CF0E9490020091330411
:1005A000109134042091350430913604AB01BC0124
:1005B000401B510B620B730B8091450490914604D4
:1005C000B0E0A0E084179507A607B70748F462E0FB
:1005D00070E08C2FDF91CF911F910F910C942D0122
:1005E00063E070E0D111C1CFF4CF70E060E0F1CFF3
:1005F0006F927F928F929F92AF92BF92CF92DF9233
:10060000EF92FF920F931F93CF93DF9381E080933C
:1006100047040E9490020091370410913804209101
:10062000390430913A04AB01BC01401B510B620B01
:10063000730B8091430490914404B0E0A0E08417D0
:100640009507A607B70708F014C1C0E080914104E0
:10065000C81760F4E0913D04F0913E04EC0FF11DE9
:1006600062E080810E94F901CF5FF0CF712C812C74
:10067000912C5401839480914204781608F05FC055
:10068000072D10E0E0913F04F0914004E00FF11FCE
:1006900061E080810E94F901E0913F04F091400403
:1006A000E00FF11F60E080810E94C701D501C40105
:1006B000072C04C0880F991FAA1FBB1F0A94D2F7EA
:1006C0006C017C01E094F094612C809141046816E7
:1006D000F8F4C62DD0E0E0913D04F0913E04EC0F1B
:1006E000FD1F80810E949B012496CC0FDD1FC55207
:1006F000DC4F892B41F4888199818C299D2999832C
:1007000088836394E2CF888199818E219F21F7CFDE
:10071000E0913F04F0914004E00FF11F61E080811F
:100720000E94C70180913F0490914004080F191F57
:1007300060E0F80180810E94F90173949CCFCBEDB9
:10074000D3E0FE018FEF9FEF278D30A1232B21F403
:10075000148E968F858F11A2369624E0E731F2072A
:1007600099F7F12C96E0D92E80914104F81608F003
:1007700050C0E12C0F2D10E0000F111F0D511C4F28
:1007800020914204E21608F042C0F80160817181B4
:100790000E2C02C0769567950A94E2F7F29E9001BE
:1007A00011242E0D311DEBEDF3E080E0458D568DCB
:1007B0002417350709F461C08F5F36968A30B1F788
:1007C00060FF23C0EBEDF3E090E080E0448D411149
:1007D00017C0E0913B04F0913C04E20FF31F40810D
:1007E000D89EF001D99EF00D1124E552FC4F448FA4
:1007F000368F258F10A2178E61E00E949C0205C0E3
:10080000019636968A30910509F7E394B9CFF394AF
:10081000ABCF10E089A18111182F2696F4E0C731E3
:10082000DF07C1F70E949002609337047093380489
:100830008093390490933A041123D9F08091FC03FA
:100840008823B9F08091FA039091FB03019789F412
:100850008091F703DF91CF911F910F91FF90EF905F
:10086000DF90CF90BF90AF909F908F907F906F90D0
:1008700008951092470480E0EDCF6170BECFAF9233
:10088000BF92CF92DF92EF92FF920F931F93CF937D
:10089000DF936C017B018B01040F151FEB015E01DF
:1008A000AE18BF08C017D10759F06991D601ED9174
:1008B000FC910190F081E02DC6010995892B79F713
:1008C000C501DF91CF911F910F91FF90EF90DF90C5
:1008D000CF90BF90AF900895089590E080E0089584
:1008E000CF93DF93DC01EB01E981F0E0ED58FF4F9E
:1008F0009491E42FF0E0E859FF4FE491E927EC935D
:10090000EA81F0E0ED58FF4FE4911196EC931197D6
:10091000EB81F0E0ED58FF4FE4911296EC931297C3
:10092000E881F0E0ED58FF4FE4911396EC93DF91EE
:10093000CF910895CF93DF93FC01EB015881B981EA
:100940009A812B81652F70E0660F771F3BE1379FFF
:10095000802D11246827CB2FD0E0CC0FDD1F3D9FC9
:10096000402D1124AC2FA427C92FD0E0CC0FDD1FC0
:100970003D9F702D11247C27C22FD0E0CC0FDD1FAE
:100980003D9F302D11243C278B2F892782278627D6
:100990008A278083452F492742274A2747274183B3
:1009A0005B27252727272327228395279627932709
:1009B0009383DF91CF910895CF93DF93DC01EB0117
:1009C000E881F0E0ED58FF4FE491EC93ED81F0E029
:1009D000ED58FF4FE4911196EC931197EA85F0E002
:1009E000ED58FF4FE4911296EC931297EF85F0E0EB
:1009F000ED58FF4FE4911396EC931397EC81F0E0E0
:100A0000ED58FF4FE4911496EC931497E985F0E0CC
:100A1000ED58FF4FE4911596EC931597EE85F0E0B5
:100A2000ED58FF4FE4911696EC931697EB81F0E0AA
:100A3000ED58FF4FE4911796EC931797E885F0E097
:100A4000ED58FF4FE4911896EC931897ED85F0E080
:100A5000ED58FF4FE4911996EC931997EA81F0E075
:100A6000ED58FF4FE4911A96EC931A97EF81F0E05E
:100A7000ED58FF4FE4911B96EC931B97EC85F0E04B
:100A8000ED58FF4FE4911C96EC931C97E981F0E040
:100A9000ED58FF4FE4911D96EC931D97EE81F0E029
:100AA000ED58FF4FE4911E96EC931E97EB85F0E016
:100AB000ED58FF4FE4911F96EC93DF91CF9108958D
:100AC000FC013296429610823196E817F907D9F761
:100AD00008950895BF92CF92DF92EF92FF920F9305
:100AE0001F93CF93DF93CDB7DEB7E4970FB6F8949B
:100AF000DEBF0FBECDBF7B0120E1FC013296DE01DF
:100B0000119601900D922A95E1F7FA018E010F5F7F
:100B10001F4F405F5F4FBE016F5E7F4F9801819115
:100B2000D9019D919D018927DB018D93BD01E417BA
:100B3000F507A9F7BB24B39481E1C82ED12CCC0EC4
:100B4000DD1EB0E1CB0ED11C4B2DBE01635F7F4F8C
:100B5000CE01C1960E947004398189A93827398352
:100B60002A818AA928272A839B818BA998279B837E
:100B70008C814CA984278C834D8134273D834E8101
:100B800024272E834F8194279F8348858427888735
:100B90004985342739874A8524272A874B85942716
:100BA0009B874C8584278C874D8534273D873E85E0
:100BB00023272E872F8592279F8798898927888BBF
:100BC000BE016F5E7F4FCE0181960E94DC04BE01A4
:100BD0006F5D7F4FCE0141960E949A04BE016B5D0E
:100BE0007F4FCE0145960E949A04BE01675D7F4FFC
:100BF000CE0149960E949A04BE01635D7F4FCE01EB
:100C00004D960E949A04AE014F5F5F4FFE017196B0
:100C10008191DA019D91AD019F0121503109892710
:100C2000D9018C93EC15FD0599F7B394BAE0BB128A
:100C30008BCF4AE0BE01635F7F4FCE01C1960E9419
:100C40007004398189A9382739832A818AA92827FC
:100C50002A839B818BA998279B838C814CA984270D
:100C60008C834D8134273D834E8124272E834F81F1
:100C700094279F8348858427888749853427398727
:100C80004A8524272A874B8594279B874C85842770
:100C90008C874D8534273D873E8523272E872F85DA
:100CA00092279F8798898927888BBE016F5E7F4F27
:100CB000CE0181960E94DC04AE014F5D5F4FD701EB
:100CC0009701205F3F4FFA018191AF01F8019191A7
:100CD0008F0189278D93A217B307A9F7E4960FB662
:100CE000F894DEBF0FBECDBFDF91CF911F910F9162
:100CF000FF90EF90DF90CF90BF90089580E190E05B
:100D00000895FC0132964296108231968E179F0705
:100D1000D9F708958F929F92AF92BF92CF92DF92B0
:100D2000EF92FF920F931F93CF93DF936B017C01A0
:100D3000EA010E949002088119812A813B814B01BE
:100D40005C01801A910AA20AB30A950184010C156C
:100D50001D052E053F0590F0688379838A839B8368
:100D600081E0DF91CF911F910F91FF90EF90DF9085
:100D7000CF90BF90AF909F908F90089580E0F1CF7B
:100D8000E1E8F0E08081887F8083E0E8F0E0808126
:100D90008F7D80832A9A60E089E00C94C701229AB3
:100DA00082E28093800088E1809381008FE39CE958
:100DB00090938700809386002A9A089561E08BE0E3
:100DC0000E94C70165E070E080E090E00E945E0252
:100DD00060E08BE00C94C7011092440380912003E3
:100DE000882329F08091440381608093440380919B
:100DF0002103882329F08091440382608093440377
:100E000080911B03882329F08091440384608093A0
:100E1000440380910801882329F08091440388606D
:100E2000809344030895CF93C82F8AE393E00E94F0
:100E3000130190934603809345038DE0C89FB00152
:100E400011244DE050E08AE393E0CF910C94FD1320
:100E50000F931F93CF93DF9360E088E00E94C70158
:100E60000E94C00660E089E00E94C701F894E898FB
:100E7000E09A7894809115030E94130761E089E05D
:100E80000E94C7010E94CF06EAE3F3E080819181CE
:100E9000A281B3810196A11DB11D80839183A2839C
:100EA000B383809115038F5F809315036AE070E030
:100EB00080E090E00E945E02CAE8D0E008EE13E015
:100EC00019830883E0E8F0E0808180628083E1E8B4
:100ED000F0E080818260808368EE73E080E090E0E3
:100EE0000E945E0284EE9CE09983888368EE73E042
:100EF00080E090E00E945E021983088368EE73E050
:100F000080E090E00E945E020E94C00660E089E0FE
:100F10000E94C70161E088E00E94C701F894E89A46
:100F2000E09A7894DF91CF911F910F910895FC0181
:100F300001900020E9F73197AF01481B590BBC0124
:100F40008AE494E00C943F048F929F92AF92BF92F8
:100F50000F931F93CF93DF93CDB7DEB7A1970FB653
:100F6000F894DEBF0FBECDBF19A2423008F44AE0AC
:100F70008E010F5D1F4F842E912CB12CA12CA50149
:100F800094010E945B16E62FB901CA01EA30F4F41D
:100F9000E05DD801EE938D01232B242B252B79F7CF
:100FA00090E080E0109719F0CD010E949707A1967C
:100FB0000FB6F894DEBF0FBECDBFDF91CF911F916A
:100FC0000F91BF90AF909F908F900895E95CE1CF13
:100FD0000C949707CF93DF93EC0160E08E810E9421
:100FE000C70161E08E810E94C70160E08E810E948E
:100FF000C7018BE891E00197F1F7DF91CF91089558
:10100000CF92DF92EF92FF920F931F93CF93DF93D4
:101010006C017C0187E0E80EF11CD0E0C0E0062FF7
:1010200010E0B8010C2E02C0759567950A94E2F79E
:101030006170F70181917F010E94C7012196C43040
:10104000D10579F7C601DF91CF911F910F91FF90E4
:10105000EF90DF90CF900C94EA07CF92DF92EF925F
:10106000FF920F931F93CF93DF93EC01F62E642F23
:101070008C810E94C7018D818F3F19F060E00E9432
:10108000C7010F2D10E08F8584FF25C06E0187E01A
:10109000C80ED11CF12CE12CB8010E2C02C07595A4
:1010A00067950A94E2F76170F60181916F010E94E1
:1010B000C701FFEFEF1AFF0A88E0E816F10461F7B5
:1010C000CE01DF91CF911F910F91FF90EF90DF90B4
:1010D000CF900C94EA07B80184E0759567958A95DE
:1010E000E1F7CE010E9400086F2DCE01DF91CF9174
:1010F0001F910F91FF90EF90DF90CF900C9400081C
:1011000040E0682F8AE494E00C942D0881E00E946E
:1011100080088BE39FE10197F1F70895CF93DF9368
:10112000823029F4909159049860909359048093E7
:101130005D0410925E0480E480935F0480E18093FC
:10114000600480E58093610461E080914E040E9418
:10115000F90180914F048F3F19F061E00E94F9017D
:1011600061E0809150040E94F901CAE4D4E09E013C
:101170002A5434408091590484FD0BC084E090E0EF
:1011800021962817390744F461E08E810E94F90105
:10119000EECF88E090E0F4CF8BE39DE00197F1F78C
:1011A00060E080914E040E94C70160E0809150048D
:1011B0000E94C70180914F048F3F19F060E00E94A8
:1011C000C7018091590484FD34C063E08AE494E04F
:1011D0000E940008CBE4D6E4CE010197F1F763E06A
:1011E0008AE494E00E9400082197F1F763E08AE422
:1011F00094E00E94000883E592E00197F1F762E035
:101200008AE494E00E9400088091590480620E9460
:10121000800884E080935A048CE00E9480080E9439
:10122000860882E080935B0486E0DF91CF910C9486
:10123000800880620E9480088BE496E40197F1F7B1
:101240008091590480620E94800883E592E00197B2
:10125000F1F78091590480620E948008D5CF909167
:101260005D04691710F06FEF690FE62FF0E0E65BA1
:10127000FB4F9489890F80680C94800841E00E949C
:101280002D0881E090E0089541E0682F8AE494E021
:101290000E942D0881E090E008954F925F926F9236
:1012A0007F928F929F92AF92BF92CF92DF92EF92F6
:1012B000FF920F931F93CF936B017C01742EAC01AF
:1012C0009B010E945616882399F08DE791E0CF91FB
:1012D0001F910F91FF90EF90DF90CF90BF90AF9054
:1012E0009F908F907F906F905F904F900C94970796
:1012F00046015701E894B7F82FEF3FEF4FE75FE75C
:10130000C501B4010E94561681110DC02FEF3FEFA9
:101310004FE75FE7C501B4010E948C1418161CF456
:1013200081E891E0D4CF2FEF3FEF4FE75FE4C701B3
:10133000B6010E94E41518161CF485E891E0C7CFA9
:101340002FEF3FEF4FE75FECC701B6010E948C140F
:1013500087FDF3CF20E030E0A901C701B6010E946C
:101360008C1410E000E087FF08C08DE20E94440961
:101370008C01F7FAF094F7F8F094C0E060E070E0C8
:1013800080E09FE37C1641F020E030E040E251E451
:101390000E949114CF5FF6CFA70196010E942014FE
:1013A0002B013C010E9403154B015C014AE00E94A5
:1013B000A4077C01E00EF11ECC23B1F1C501B401FC
:1013C0000E9432159B01AC01C301B2010E941F149F
:1013D0004B015C018EE20E944409E80EF91EC150E7
:1013E00018F120E030E040E251E4C501B4010E9470
:1013F000E9152B013C010E9403154B01B12CA12CD6
:101400004AE0C501B4010E94A407E80EF91EC50117
:10141000B4010E9432159B01AC01C301B2010E94CC
:101420001F144B015C01DBCFC701CF911F910F91BE
:10143000FF90EF90DF90CF90BF90AF909F908F90F4
:101440007F906F905F904F900895EF92FF921F935F
:10145000CF93DF937C01162F0E94860860E080E026
:101460000E942F0989E891E00E94E807D0E0C0E0DF
:10147000C11730F4F701EC0FFD1F80810E94440971
:101480002196C430D105A1F7143018F08DE20E94E6
:101490004409C4E0D0E0C11730F4F701EC0FFD1FA0
:1014A00080810E9444092196C830D105A1F761E0EE
:1014B00080E00E942F09183018F08DE20E94440944
:1014C000C11730F4F701EC0FFD1F80810E94440921
:1014D0002196CC30D105A1F71C3018F08DE20E9486
:1014E0004409C11730F4F701EC0FFD1F80810E9401
:1014F00044092196C031D105A1F7103118F08DE2D1
:101500000E944409C11730F4F701EC0FFD1F8081E0
:101510000E9444092196C431D105A1F7DF91CF91F2
:101520001F91FF90EF9008950E94A418403151053B
:1015300051F4DC01129680E1FB0101900D928A9535
:10154000E1F781E0089580E00895CF93DF93EC0107
:101550000E948106CE01DF91CF910C941B181F923F
:101560000F920FB60F9211242F933F938F939F9357
:10157000AF93BF938091320390913303A0913403D2
:10158000B09135033091310323E0230F2D3758F507
:101590000196A11DB11D20933103809332039093D6
:1015A0003303A0933403B0933503809136039091B5
:1015B0003703A0913803B09139030196A11DB11DE5
:1015C0008093360390933703A0933803B093390385
:1015D000BF91AF919F918F913F912F910F900FBE2F
:1015E0000F901F90189526E8230F0296A11DB11D9C
:1015F000D2CF1F920F920FB60F9211242F934F93B9
:101600005F936F937F938F939F93AF93BF9320913B
:1016100084008091110390911203A0911303B09163
:101620001403820F911DA11DB11D8093110390938E
:101630001203A0931303B0931403809111039091AC
:101640001203A0911303B091140340911103509120
:10165000120360911303709114032AE0880F991FFD
:10166000AA1FBB1F2A95D1F7840F951FA61FB71F6E
:101670008093110390931203A0931303B093140368
:101680008091110390911203A0911303B091140360
:101690004091110350911203609113037091140350
:1016A00026E0B695A795979587952A95D1F7842733
:1016B0009527A627B7278093110390931203A09331
:1016C0001303B0931403809110038F5F8093100372
:1016D000BF91AF919F918F917F916F915F914F914A
:1016E0002F910F900FBE0F901F9018951F920F9281
:1016F0000FB60F9211248F939F93AF93BF93809156
:101700003E0390913F03A0914003B0914103892B88
:101710008A2B8B2BE1F080913E0390913F03A091A7
:101720004003B09141030197A109B10980933E03A1
:1017300090933F03A0934003B0934103BF91AF91B7
:101740009F918F910F900FBE0F901F90189581E081
:1017500080932C03F3CF1F920F920FB60F92112498
:101760002F933F934F935F936F937F938F939F93A9
:10177000AF93BF93EF93FF9380910901811112C042
:1017800060E088E00E94C7010E94C00660E089E036
:101790000E94C701809115030E9413072D9A81E0D2
:1017A00080930901FF91EF91BF91AF919F918F912C
:1017B0007F916F915F914F913F912F910F900FBE4D
:1017C0000F901F9018951092C7038091C8038078DE
:1017D00080628F778093C8031092C9031092CA0366
:1017E0001092CB031092CC0380E89EEEA6E3B0E00B
:1017F0008093CD039093CE03A093CF03B093D003F7
:101800001092D9031092DA0310924D0410924C04F6
:1018100085E791E090934B0480934A0410924E0424
:101820008FEF80934F0481E08093500484E0809395
:10183000510485E08093520486E08093530487E04E
:101840008093540410925504109256041092570439
:10185000109258041092590481E00E948E08109250
:10186000DD031092E1031092E0031092E2038BE695
:1018700091E09093DC038093DB03E7EFF3E01082C9
:10188000148213821582369684E0E333F807B9F7A1
:101890008DE091E090933E0480933D048AE091E0D6
:1018A0009093400480933F0484E08093410483E05C
:1018B0008093420481E191E090933C0480933B0447
:1018C0008AE090E0909344048093430484EF91E095
:1018D0009093460480934504109249041092480462
:1018E00010923704109238041092390410923A047E
:1018F000109247040895CF93DF93CDB7DEB7CA5552
:10190000D1090FB6F894DEBF0FBECDBF789484B571
:10191000826084BD84B5816084BD85B5826085BDEB
:1019200085B5816085BD80916E00816080936E0079
:10193000109281008091810082608093810080916B
:10194000810081608093810080918000816080931C
:1019500080008091B10084608093B1008091B000DC
:1019600081608093B00080917A00846080937A00D7
:1019700080917A00826080937A0080917A00816001
:1019800080937A0080917A00806880937A00109228
:10199000C10061E088E00E94F90161E08BE00E94F3
:1019A000F901259A62E082E00E94F90162E083E099
:1019B0000E94F901809169008260809369008091A2
:1019C00069008E7F809369008091690088608093B0
:1019D0006900809169008B7F80936900E89AE99A99
:1019E000789482E00E948E0880E40E94800800E0E3
:1019F00011E0E8E0EE2EE1E0FE2ED8016D918D01C0
:101A00008AE494E00E943E09E016F106B1F7D12C79
:101A1000C12CF12C412C512C320100E010E04DE0A2
:101A200050E0B601CE0101960E94ED13CE01019661
:101A30000E9413012C853D858217930779F48981D3
:101A40009A81AB81BC81002309F44CC04816590629
:101A50006A067B0618F4F12E2C013D011F5FBDE0E4
:101A6000CB0ED11C1E34D9F6F092150360911503EC
:101A7000EDE06E9FB00111244DE050E08AE393E069
:101A80000E94ED138AE393E00E9413012091450325
:101A9000309146038217930751F160E080E00E9485
:101AA0002F0981E991E00E94E80761E080E00E944F
:101AB0002F0982EA91E00E94E80761E08BE00E9432
:101AC000C70164EF71E080E090E00E945E0260E098
:101AD0008BE00E94C70164EF71E080E090E00E941B
:101AE0005E02EBCFF12E2C013D0101E0B7CF8091DA
:101AF00015038F5F80931503809115038E3410F0CA
:101B00001092150380913A0390913B03A0913C03FE
:101B1000B0913D0380933A0390933B03A0933C0321
:101B2000B0933D0380913A0390913B03A0913C0315
:101B3000B0913D030196A11DB11D80933A0390938E
:101B40003B03A0933C03B0933D0380913A039091F3
:101B50003B03A0913C03B0913D038A3F9F4FAF4FA1
:101B6000BF4F90F00E94860860E080E00E942F093D
:101B700083EB91E00E94E80761E080E00E942F097A
:101B800084EC91E00E94E80761E08BE00E94C701CD
:101B900062E370E080E090E00E945E0260E08BE033
:101BA0000E94C7010E94CF0661E089E00E94F9010E
:101BB00060E089E00E94C7019E012F5F3F4F19013D
:101BC000AE014D5E5F4F2B965FAF4EAF2B9780916E
:101BD00009018823A9F04DE253E06CE271E080E056
:101BE00090E00E948A06882321F0109209010E9449
:101BF000CF0620E030E0232B51F30E940000E7CF16
:101C000080912C03882399F080912B0310922C0350
:101C10008111F3C00E949002609327037093280300
:101C20008093290390932A0381E080932B03809172
:101C30002B038823C1F00E9490020091270310918A
:101C400028032091290330912A03601B710B820B1A
:101C5000930B603A76488140910528F010922B034F
:101C6000109226032B988091260360E0882309F4C4
:101C7000EBC08FE00E942F0960E08AE494E00E94AC
:101C80003E0942E253E068EE73E080E090E00E949B
:101C90008A068823A1F080912603811108C08091D3
:101CA0002103811104C080912003882341F085B174
:101CB00098E0892785B985B191E0892785B94CE1FC
:101CC00053E060EA7FE080E090E00E948A0688238B
:101CD00021F085B191E0892785B980913E039091EB
:101CE0003F03A0914003B0914103892B8A2B8B2B9A
:101CF00069F480910801882349F00E942807109216
:101D0000080181E0809320030E94EC0680913E034D
:101D100090913F03A0914003B091410381159D47ED
:101D2000A105B10568F480912103811109C080915A
:101D30001B03811105C081E0809321030E94EC0602
:101D40002D9860E080E00E942F0960913E03709121
:101D50003F0380914003909141030E94321520E09F
:101D600030E048E455E40E94911442E00E944D099D
:101D700085ED91E00E94E80780913E0390913F033A
:101D8000A0914003B0914103892B8A2B8B2B09F042
:101D900062C060913E0370913F0380914003909137
:101DA00041034AE00E94A4078BED91E00E94E807FE
:101DB00061E080E00E942F0981EE91E00E94E80737
:101DC0000E94F802182F882309F413CF0E94DE0620
:101DD00080912003811105C080912103882309F49B
:101DE00077C0109220031092210381E080931B039F
:101DF0000E94EC062B98289AFCCE0E94900200913B
:101E00002703109128032091290330912A03601B96
:101E1000710B820B930B603A76488140910570F408
:101E200081E0809326030E949002609327037093C1
:101E300028038093290390932A03F9CE1092260356
:101E400010922B032B98F3CE8FE00E942F0980E293
:101E50000E94440916CF80913E0390913F03A091C8
:101E60004003B091410381159D47A105B105B0F430
:101E700060913E0370913F03809140039091410334
:101E80004AE00E94A4078BED91E00E94E80761E020
:101E900080E00E942F0982EF91E090CF80911B0398
:101EA000882321F010921B030E94EC0661E081E080
:101EB0000E942F0960913E0370913F03809140037F
:101EC000909141034AE00E94A40783E092E076CF1C
:101ED00080ED810F8A3008F0D9C20E9486080E94E6
:101EE00090026093170370931803809319039093E3
:101EF0001A03198261E088E00E94C70160E080E077
:101F00000E942F0989E891E00E94E80710E047E16C
:101F100053E060E573EC80E090E00E948A0688233D
:101F200009F43BC10E94860880911603815080937A
:101F3000160364962FAD649765963FAD65976696D8
:101F40004FAD669767965FAD679768966FAD689778
:101F500069967FAD69976A968FAD6A976B969FADCC
:101F60006B9700E20E944C1769017A016496BFAD3D
:101F700064972C96BFAF2C976596EFAD65972D961D
:101F8000EFAF2D976696FFAD66972E96FFAF2E9713
:101F900067963FAD67972F963FAF2F972696FFAE78
:101FA00026972796EFAE27972896DFAE2897299693
:101FB0002FAF299747E251E05CA34BA3CE01839654
:101FC0009A83898340E150E067E571E00E94960AB8
:101FD0004E0155E3850E911CC401409624018401F5
:101FE000D2011D922D018A179B07D1F789819A8111
:101FF000DC01ED91FC910284F385E02D47E451E092
:10200000B40109953E01B3E06B0E711CD301F401DC
:1020100081918D93E415F505D9F7C3010E94620102
:102020008DA987FF06C047E351E0B301C3010E94B9
:1020300050012301F20181912F0187872B962EAD4C
:102040003FAD2B972E173F07A9F7CE0143960E946D
:1020500062018B8187FF08C047E351E0BE016D5EDE
:102060007F4FCB010E945001FE01EB5BFF4F90E0E0
:1020700080E0843091050CF039C12081D4012C938B
:1020800031960196BFEF8B1A9B0A8031910589F733
:10209000AE014D5E5F4FBE016B5C7F4FCB010E9476
:1020A0005001F30111923F014E165F06D1F7AE01C8
:1020B0004D5F5F4FB801CE0143960E945001898168
:1020C0009A81DC01ED91FC910284F385E02DAE0153
:1020D0004D5E5F4FB80109956DA97EA98FA998AD96
:1020E0000E947D162F962CAD3DAD4EAD5FAD2F9766
:1020F000261737074807590709F002C1D701C6015B
:102100005CE1B695A795979587955A95D1F78F304D
:1021100009F0F6C02091420330914303D701C60174
:102120004CE0B695A795979587954A95D1F72817CE
:10213000390708F0E5C01092160382E0F694E794A0
:10214000D794C7948A95D1F796013370A0E8BCE084
:102150000E94841600913E0310913F03209140039A
:10216000309141030095109520953095061717077B
:102170002807390708F0FFC00E94860860E080E069
:102180000E942F0980E292E00E94E80761E080E06F
:102190000E942F0980E392E042C10E94F802082FBA
:1021A000882309F4B4CE0E94DE060E949002609358
:1021B0001703709318038093190390931A0380ED0B
:1021C000800F8A3088F4143108F0A1CEF101E10FBC
:1021D000F11D00831F5FF101E10FF11D1082612FDE
:1021E000C1010E94250A93CE0A3229F4112309F471
:1021F0008ECE1150F0CF033209F089CE143109F0A0
:1022000086CE9E012F5F3F4F63963FAF2EAF639701
:102210002C961FAE2C9760961FAE6097412C512CC8
:10222000612C712C812C912C6396AEADBFAD639760
:102230008D916396BFAFAEAF6397882309F473C2E5
:10224000805361968FAF61978A3008F08BC27AE035
:10225000A72EB12CC12CD12CE12CF12C00E010E0E8
:10226000282F20953FEF4FEF5FEF6FEF7FEF8FEF5E
:102270009FEF0E94ED162C96AFAC2C976096BFACEA
:1022800060976201730184010E94701708F46AC2AA
:102290006AE0A62EB12CC12CD12CE12CF12C00E04F
:1022A00010E02C962FAD2C9760963FAD6097A20161
:1022B000B301C4010E94931659016A017B018C018C
:1022C00061962FAD619730E040E050E060E070E053
:1022D00080E090E00E9467172C962FAF2C976096B5
:1022E0003FAF60972A013B014C019ECF843091059E
:1022F00021F420E8D4012C93C4CED4011C92C1CE89
:10230000109116031F5F109316030E948608153064
:1023100008F094C060E080E00E942F0989E592E017
:102320000E94E80761E080E00E942F098AE692E0BF
:102330000E94E8078091160345E050E0481B5109D0
:102340006A01052E000CEE08FF0857FF9BC08DE2C6
:102350000E94440966277727CB016C197D098E09F5
:102360009F094AE00E94A40768EE73E080E090E0D5
:102370000E945E0256C02FB7F894C0903E03D090E2
:102380003F03E0904003F0904103C60ED71EE81EC5
:10239000F91EC0923E03D0923F03E0924003F092B8
:1023A00041032FBF60E088E00E94C7010E94C00681
:1023B000809115030E94130781E080930801109219
:1023C000260361E088E00E94C7010E94CF06809149
:1023D0003A0390913B03A0913C03B0913D030196D9
:1023E000A11DB11D80933A0390933B03A0933C033E
:1023F000B0933D03809115038F5F809315030E9476
:10240000860860E085E00E942F098AEF91E00E9433
:10241000E80761E085E00E942F0984E192E00E94D4
:10242000E80760ED77E080E090E00E945E02CE0178
:1024300083960E9481060E948608DBCB60E081E0E3
:102440000E942F0981E492E00E94E807C0903E03B9
:10245000D0903F03E0904003F090410361E081E0C1
:102460000E942F09C701B6010E94321520E030E01A
:1024700048E455E40E94911442E00E944D0980E531
:1024800092E0E2CF4AE0C701B6016CCF81E1EEEF06
:10249000F2E0DE01939601900D928A95E1F781E1D9
:1024A0001A3209F0A0C0D1011D928A95E9F761E0C6
:1024B00088E00E94C7010E94860860E080E00E94D8
:1024C0002F098AE792E00E94E80761E080E00E941D
:1024D0002F090E9490026093170370931803809352
:1024E000190390931A0310E047E153E060E375E7A6
:1024F00080E090E00E948A0681119DCF0E94F80240
:10250000082F882361F00E94DE060E9490026093EB
:102510001703709318038093190390931A0380EDA7
:10252000800F8A30B0F41031F8F6FF24F394F10EE6
:10253000F101E10FF11D0083F101EF0DF11D10829A
:1025400061E0812F0E942F098AE20E9444091F2D19
:10255000CBCF0A3299F4112339F21150F101E10F76
:10256000F11D108261E0812F0E942F0980E20E94FC
:10257000440961E0812F0E942F09B6CF033209F090
:10258000B3CFBE016D5D7F4FC1010E94A918892B99
:1025900009F0BAC00E94860860E080E00E942F091E
:1025A0008BE892E00E94E8074AE06FE070E080E08C
:1025B00090E00E94A40761E080E00E942F0986E974
:1025C00092E00E94E807609142037091430390E01B
:1025D00080E04AE00E94A40768EB7BE080E090E0A6
:1025E0000E945E0228CFF10111928A95E9F761E01D
:1025F00088E00E94C7010E94860860E080E00E9497
:102600002F098FEA92E00E94E80761E080E00E94D3
:102610002F090E9490026093170370931803809310
:10262000190390931A0310E047E153E060E375E764
:1026300080E090E00E948A068111FDCE0E94F8029F
:10264000082F882361F00E94DE060E9490026093AA
:102650001703709318038093190390931A0380ED66
:10266000800F8A30B0F41031F8F6FF24F394F10EA5
:10267000F101E10FF11D0083F101EF0DF11D108259
:1026800061E0812F0E942F098AE20E9444091F2DD8
:10269000CBCF0A3299F4112339F21150F101E10F35
:1026A000F11D108261E0812F0E942F0980E20E94BB
:1026B000440961E0812F0E942F09B6CF033209F04F
:1026C000B3CFBE016D5D7F4FC1010E94A918892B58
:1026D000D9F40E94860860E080E00E942F098FEB09
:1026E00092E00E94E80761E080E00E942F0980EDFF
:1026F00092E00E94E80764EF71E080E090E00E94C1
:102700005E020E94280797CE0E94860860E080E063
:102710000E942F098EE992E00E94E80760ED77E0C1
:1027200080E090E05DCF2C963FAD2C9764963FAF54
:10273000649760964FAD609765964FAF65976696C4
:102740004FAE669767965FAE679768966FAE68976D
:1027500069967FAE69976A968FAE6A976B969FAEC1
:102760006B97E7CB0E94860860E083E00E942F0908
:102770008FED92E00E94E80761E083E00E942F095C
:102780008DEE92E00E94E80760ED77E080E090E057
:102790000E945E020E948608CCCBF894A89584B76C
:1027A000877F84BF80916000886180936000109271
:1027B00060007894E7E4F3E01082319683E0E73834
:1027C000F807D1F780E490E027EC33E0F901E81B4B
:1027D000F90B10820197D1F70895DC01CB01FC01C0
:1027E000F999FECF06C0F2BDE1BDF89A319600B46A
:1027F0000D9241505040B8F70895DC01A40FB51F69
:102800004150504048F0CB01840F951F2E910E94FB
:102810000E1441505040D0F70895262FF999FECF5D
:1028200092BD81BDF89A019700B4021639F01FBA23
:1028300020BD0FB6F894FA9AF99A0FBE0895505831
:10284000BB27AA270E9437140C94AA150E949C1536
:1028500038F00E94A31520F039F49F3F19F426F4B4
:102860000C9499150EF4E095E7FB0C949315E92F61
:102870000E94BB1558F3BA176207730784079507C0
:1028800020F079F4A6F50C94DD150EF4E0950B2EEE
:10289000BA2FA02D0B01B90190010C01CA01A001B2
:1028A0001124FF27591B99F0593F50F4503E68F10D
:1028B0001A16F040A22F232F342F4427585FF3CF4E
:1028C000469537952795A795F0405395C9F77EF41F
:1028D0001F16BA0B620B730B840BBAF09150A1F068
:1028E000FF0FBB1F661F771F881FC2F70EC0BA0FEE
:1028F000621F731F841F48F4879577956795B79576
:10290000F7959E3F08F0B0CF9395880F08F0992770
:10291000EE0F9795879508950E946F1508F481E052
:1029200008950E94A5140C94AA150E94A31558F0AE
:102930000E949C1540F029F45F3F29F00C949315F8
:1029400051110C94DE150C9499150E94BB1568F377
:102950009923B1F3552391F3951B550BBB27AA2758
:1029600062177307840738F09F5F5F4F220F331F92
:10297000441FAA1FA9F335D00E2E3AF0E0E832D05A
:1029800091505040E695001CCAF72BD0FE2F29D05D
:10299000660F771F881FBB1F261737074807AB072F
:1029A000B0E809F0BB0B802DBF01FF2793585F4FA4
:1029B0003AF09E3F510578F00C9493150C94DE1577
:1029C0005F3FE4F3983ED4F3869577956795B79586
:1029D000F7959F5FC9F7880F911D9695879597F991
:1029E0000895E1E0660F771F881FBB1F621773070A
:1029F0008407BA0720F0621B730B840BBA0BEE1F1F
:102A000088F7E09508950E94C31588F09F5798F0C5
:102A1000B92F9927B751B0F0E1F0660F771F881FE3
:102A2000991F1AF0BA95C9F714C0B13091F00E94FD
:102A3000DD15B1E008950C94DD15672F782F8827F8
:102A4000B85F39F0B93FCCF3869577956795B39524
:102A5000D9F73EF490958095709561957F4F8F4F93
:102A60009F4F0895E89409C097FB3EF49095809598
:102A7000709561957F4F8F4F9F4F9923A9F0F92F44
:102A800096E9BB279395F695879577956795B795C2
:102A9000F111F8CFFAF4BB0F11F460FF1BC06F5FA8
:102AA0007F4F8F4F9F4F16C0882311F096E911C0BA
:102AB000772321F09EE8872F762F05C0662371F0DB
:102AC00096E8862F70E060E02AF09A95660F771FEF
:102AD000881FDAF7880F9695879597F90895990FCB
:102AE0000008550FAA0BE0E8FEEF16161706E807D8
:102AF000F907C0F012161306E407F50798F0621BF9
:102B0000730B840B950B39F40A2661F0232B242BCD
:102B1000252B21F408950A2609F4A140A6958FEFEC
:102B2000811D811D089597F99F6780E870E060E03E
:102B300008959FEF80EC089500240A941616170656
:102B400018060906089500240A941216130614069E
:102B500005060895092E0394000C11F4882352F001
:102B6000BB0F40F4BF2B11F460FF04C06F5F7F4FB9
:102B70008F4F9F4F089557FD9058440F551F59F0A0
:102B80005F3F71F04795880F97FB991F61F09F3F5A
:102B900079F087950895121613061406551FF2CF83
:102BA0004695F1DF08C0161617061806991FF1CFD3
:102BB00086957105610508940895E894BB276627FA
:102BC0007727CB0197F908950E946F1508F48FEFCE
:102BD00008950E94FC150C94AA150E949C1538F0CB
:102BE0000E94A31520F0952311F00C9493150C94DA
:102BF000991511240C94DE150E94BB1570F3959F56
:102C0000C1F3950F50E0551F629FF001729FBB27E3
:102C1000F00DB11D639FAA27F00DB11DAA1F649F7F
:102C20006627B00DA11D661F829F2227B00DA11D32
:102C3000621F739FB00DA11D621F839FA00D611DB8
:102C4000221F749F3327A00D611D231F849F600DD9
:102C5000211D822F762F6A2F11249F5750409AF002
:102C6000F1F088234AF0EE0FFF1FBB1F661F771F8E
:102C7000881F91505040A9F79E3F510580F00C9459
:102C800093150C94DE155F3FE4F3983ED4F38695DC
:102C900077956795B795F795E7959F5FC1F7FE2BF9
:102CA000880F911D9695879597F908950E946F1545
:102CB000880B990B0895A1E21A2EAA1BBB1BFD01DC
:102CC0000DC0AA1FBB1FEE1FFF1FA217B307E4070B
:102CD000F50720F0A21BB30BE40BF50B661F771F63
:102CE000881F991F1A9469F7609570958095909543
:102CF0009B01AC01BD01CF01089569279627692783
:102D00007827872778270895A29FB001B39FC00135
:102D1000A39F700D811D1124911DB29F700D811D07
:102D20001124911D0895DF93CF931F930F939A9DC4
:102D3000F02D219FF00D8B9DF00D8A9DE02DF10D62
:102D4000039FF00D029FE00DF11D4E9DE00DF11D62
:102D50005E9DF00D4F9DF00D7F936F93BF92AF92EC
:102D60005F934F93D5010E9484168B01AC01D7016C
:102D70000E948416EB01E80FF91FD6010E94E216AB
:102D80002F913F91D6010E948416C60FD71FE81FCE
:102D9000F91FAF91BF910E94E2162F913F910E94BF
:102DA0008416C60FD71FE81FF91FD6010E9484168C
:102DB000E60FF71F9801BE01CF010F911F91CF9130
:102DC000DF9108950E948416460F571FC81FD91F10
:102DD00008F431960895689401C0E8948F929F9208
:102DE000CF93DF930E94F916DF91CF919F908F9040
:102DF000089588249924F401E401B0E49F93AA275C
:102E00009A158B049C04ED05FE05CF05D007A1079C
:102E100098F4AD2FDC2FCF2FFE2FE92D982C892E83
:102E2000982F872F762F652F542F432F322F22274D
:102E3000B85031F7BF9127C01B2EBF91BB27220F7F
:102E4000331F441F551F661F771F881F991F881C3B
:102E5000991CEE1FFF1FCC1FDD1FAA1FBB1F8A146A
:102E60009B04EC05FD05CE05DF05A007B10748F082
:102E70008A189B08EC09FD09CE09DF09A00BB10BEC
:102E800021601A94E1F62EF49401AF01BE01CD0148
:102E9000000C089597FD1094002E083098F008500B
:102EA000232F342F452F562F672F782F892F912DC1
:102EB000F4CF15949795879577956795579547958E
:102EC000379527950A95AAF71124002D08952A0D04
:102ED0003B1D4C1D5D1D6E1D7F1D801F911F0895A4
:102EE0002A153B054C055D056E057F05800791079A
:102EF0000895EE0FFF1F0590F491E02D09940F93B4
:102F00001F93CF93DF938230910510F482E090E01D
:102F1000E0916404F091650430E020E0B0E0A0E0CE
:102F2000309799F42115310509F44AC0281B390B53
:102F300024303105D8F58A819B816115710589F1AD
:102F4000FB0193838283FE0111C040815181028184
:102F5000138148175907E0F04817590799F410975B
:102F600061F012960C93129713961C933296CF0130
:102F7000DF91CF911F910F910895009364041093F6
:102F80006504F4CF2115310551F04217530738F08D
:102F9000A901DB019A01BD01DF01F801C1CFEF01F9
:102FA000F9CF9093650480936404CDCFFE01E20FC6
:102FB000F31F819391932250310939832883D7CF0E
:102FC0002091620430916304232B41F420911F016E
:102FD00030912001309363042093620420911D01FD
:102FE00030911E012115310541F42DB73EB74091B6
:102FF000210150912201241B350BE0916204F091D4
:103000006304E217F307A0F42E1B3F0B28173907C0
:1030100078F0AC014E5F5F4F2417350748F04E0F34
:103020005F1F5093630440936204819391939FCFF9
:10303000F0E0E0E09CCFCF93DF930097E9F0FC0154
:10304000329713821282A0916404B0916504ED015D
:1030500030E020E01097A1F420813181820F931F8E
:1030600020916204309163042817390709F061C088
:10307000F0936304E0936204DF91CF910895EA0135
:10308000CE17DF07E8F54A815B819E0141155105A6
:10309000B1F7E901FB83EA8349915991C40FD51F28
:1030A000EC17FD0761F4808191810296840F951FD2
:1030B000E90199838883828193819B838A83F0E0ED
:1030C000E0E012968D919C9113970097B9F52D91A0
:1030D0003C911197CD010296820F931F20916204BB
:1030E000309163042817390739F6309751F510925B
:1030F000650410926404B0936304A0936204BCCF8F
:10310000D383C28340815181840F951FC817D9078B
:1031100061F44E5F5F4F88819981480F591F518339
:1031200040838A819B81938382832115310509F035
:10313000B0CFF0936504E09364049ECFFD01DC0101
:10314000C0CF13821282D7CF81E090E0F8940C9424
:10315000B218FB01DC018D91019080190110D9F3A7
:10316000990B089510E0C8EED0E004C0FE010E9463
:0E31700079172196C93ED107C9F7F894FFCF11
:10317E0004041511111B0E0001010F0E0C13121178
:10318E00103132333435363738392A302300006661
:10319E00048000000000008106A50A7E067E0696C9
:1031AE000A6A0569056005000000000000000000C5
:1031BE00000000000000870000000000000000007A
:1031CE00000000000000002B7E151628AED2A6AB24
:1031DE00F7158809CF4F3C000000003502F501C4F9
:1031EE0001000000003E093F046D046C046E616E28
:1031FE0000696E66006F766600546F6B656E3A20DE
:10320E0000202020454550524F4D2052454144202C
:10321E0020004552524F522E2052657374617274C3
:10322E0020210020526520496E697469616C697AAB
:10323E0065202000454570726F6D20746F205265B9
:10324E007573652E00206B5768200020496D702025
:10325E0000556E6974732045786861757374656482
:10326E002E004C6F772042616C205265636861724C
:10327E0067650020496D702020202020202020200E
:10328E00202020005375636365737366756C2E0082
:10329E0043616E6E6F74205265636861726765007C
:1032AE00746F2045786365737320556E697473214E
:1032BE00004D45544552204C4F434B454420210070
:1032CE00206B5768202020200020546F6B656E20E5
:1032DE00496E76616C6964202100417474656D706D
:1032EE007473206C6566743A200020456E746572A6
:1032FE002050617373776F72643A004D6574657216
:10330E002049643A2000536C204E6F2E20005772D5
:10331E006F6E672050617373776F72642021005354
:10332E006572766F546573742E2070696E3A005014
:10333E00617373776F726420436F7272656374008A
:10334E004D63622054657374696E672E2E2E004F86
:10335E007574204F662052616E67652E0043686556
:10336E00636B20546F6B656E204E6F203F003139BA
:10337E00333735303432363831353933353700005E
:00000001FF
