:020000040000FA
:100000000C94E9000C94CA0B0C94950B0C94110100
:100010000C9411010C9411010C94180B0C94110107
:100020000C9411010C9411010C9411010C94110108
:100030000C9411010C9411010C9411010C941101F8
:100040000C94CE0A0C9411010C9411010C94110122
:100050000C9411010C9411010C9411010C941101D8
:100060000C9411010C9411010001020408102040AD
:10007000801B36637C777BF26B6FC53001672BFE8C
:10008000D7AB76CA82C97DFA5947F0ADD4A2AF9CEE
:10009000A472C0B7FD9326363FF7CC34A5E5F171C5
:1000A000D8311504C723C31896059A071280E2EBCE
:1000B00027B27509832C1A1B6E5AA0523BD6B3295E
:1000C000E32F8453D100ED20FCB15B6ACBBE394AEB
:1000D0004C58CFD0EFAAFB434D338545F9027F50F2
:1000E0003C9FA851A3408F929D38F5BCB6DA2110F1
:1000F000FFF3D2CD0C13EC5F974417C4A77E3D6489
:100100005D197360814FDC222A908846EEB814DEB8
:100110005E0BDBE0323A0A4906245CC2D3AC629142
:1001200095E479E7C8376D8DD54EA96C56F4EA652C
:100130007AAE08BA78252E1CA6B4C6E8DD741F4B2B
:10014000BD8B8A703EB5664803F60E613557B98699
:10015000C11D9EE1F8981169D98E949B1E87E9CE46
:100160005528DF8CA1890DBFE6426841992D0FB05B
:1001700054BB1600000000240027002A00000000E5
:1001800000250028002B0000000000230026002985
:100190000004040404040404040202020202020330
:1001A000030303030301020408102040800102043A
:1001B00008102001020408102000000008000201BD
:1001C0000000030407000000000000000000470CCE
:1001D000A21411241FBECFEFD8E0DEBFCDBF13E0C5
:1001E000A0E0B1E0E4E5F3E302C005900D92A43392
:1001F000B107D9F724E0A4E3B3E001C01D92A2380F
:10020000B207E1F710E0C8EED0E004C02197FE018C
:100210000E946418C73ED107C9F70E94DF0C0C94F6
:100220009D190C94000096E0899FD0011124A950DB
:10023000BC4F90967C936E935F9791E091969C93C0
:100240009197E0916404F09165049091630499237F
:1002500039F0309751F0811108C08091130409944E
:10026000309719F05C968C91FACF0895CF93DF9375
:10027000FB01DA01EC019B01205F3F4F91918D91D1
:1002800098279993E217F307C9F7DF91CF91089563
:10029000FC0180E1815058F020E009F0218191912A
:1002A000990F27FD9160DF0111979C93F3CF08957B
:1002B000833081F028F4813099F08230A9F00895DC
:1002C0008730A9F08830C9F08430B1F48091800083
:1002D0008F7D03C0809180008F7780938000089588
:1002E00084B58F7784BD089584B58F7DFBCF8091D1
:1002F000B0008F778093B00008958091B0008F7D1B
:10030000F9CFCF93DF93282F30E0F901E754FE4F68
:100310008491F901EB55FE4FD491F901EF56FE4F50
:10032000C491CC23A1F081110E945801EC2FF0E080
:10033000EE0FFF1FE957FE4FA591B491EC91ED230D
:1003400081E090E009F480E0DF91CF91089580E0B2
:1003500090E0FACF862F0C9481011F93CF93DF9307
:10036000282F30E0F901E754FE4F8491F901EB5555
:10037000FE4FD491F901EF56FE4FC491CC23A9F062
:10038000162F81110E945801EC2FF0E0EE0FFF1F95
:10039000E358FE4FA591B4918FB7F894EC911111E9
:1003A00008C0D095DE23DC938FBFDF91CF911F91E2
:1003B0000895DE2BF8CF862F642F0C94AD01CF93D8
:1003C000DF9390E0FC01EB55FE4F24918F569E4F3A
:1003D000FC0184918823C9F090E0880F991FFC01EB
:1003E000ED58FE4FA591B491FC01E358FE4FC59125
:1003F000D49161110DC09FB7F8948C912095822300
:100400008C938881282328839FBFDF91CF91089503
:10041000623051F49FB7F8943C91822F80958323EA
:100420008C93E8812E2BEFCF8FB7F894EC912E2B85
:100430002C938FBFEACF862F642F0C94DF013FB738
:10044000F89480915F0390916003A0916103B09153
:10045000620326B5A89B05C02F3F19F00196A11D88
:10046000B11D3FBFBA2FA92F982F8827BC01CD01FE
:10047000620F711D811D911D42E0660F771F881F5D
:10048000991F4A95D1F708958F929F92AF92BF928C
:10049000CF92DF92EF92FF924B015C010E941F020C
:1004A0006B017C010E941F026C197D098E099F0956
:1004B000683E734081059105A8F321E0821A9108F6
:1004C000A108B10888EEC80E83E0D81EE11CF11C1B
:1004D00081149104A104B10429F7FF90EF90DF90FB
:1004E000CF90BF90AF909F908F9008952FB7F894C2
:1004F00060915B0370915C0380915D0390915E035A
:100500002FBF08950F931F93CF93DF93C82FD62F3C
:1005100086E0C89FF0011124E950FC4F11A2878D9D
:1005200090A181309105F1F058F082309105F1F100
:10053000039709F440C0DF91CF911F910F91089567
:100540006623C9F361E070E08C2F0E9413010E94C2
:10055000760260934F0470935004809351049093FB
:100560005204E9CF0E94760200914F04109150048A
:100570002091510430915204AB01BC01401B510B3E
:10058000620B730B8091610490916204B0E0A0E073
:1005900084179507A607B70748F462E070E08C2F30
:1005A000DF91CF911F910F910C94130163E070E0E4
:1005B000D111C1CFF4CF70E060E0F1CF6F927F92A4
:1005C0008F929F92AF92BF92CF92DF92EF92FF9263
:1005D0000F931F93CF93DF9381E0809363040E9476
:1005E00076020091530410915404209155043091E7
:1005F0005604AB01BC01401B510B620B730B809185
:100600005F0490916004B0E0A0E084179507A6070E
:10061000B70708F014C1C0E080915D04C81760F40A
:10062000E0915904F0915A04EC0FF11D62E08081D1
:100630000E94DF01CF5FF0CF712C812C912C5401EF
:10064000839480915E04781608F05FC0072D10E057
:10065000E0915B04F0915C04E00FF11F61E08081A8
:100660000E94DF01E0915B04F0915C04E00FF11F58
:1006700060E080810E94AD01D501C401072C04C057
:10068000880F991FAA1FBB1F0A94D2F76C017C0127
:10069000E094F094612C80915D046816F8F4C62D06
:1006A000D0E0E0915904F0915A04EC0FFD1F8081D5
:1006B0000E9481012496CC0FDD1FC950DC4F892B8D
:1006C00041F4888199818C299D2999838883639439
:1006D000E2CF888199818E219F21F7CFE0915B0441
:1006E000F0915C04E00FF11F61E080810E94AD0198
:1006F00080915B0490915C04080F191F60E0F80181
:1007000080810E94DF0173949CCFC7EFD3E0FE018C
:100710008FEF9FEF278D30A1232B21F4148E968F1E
:10072000858F11A2369624E0E333F20799F7F12C76
:1007300096E0D92E80915D04F81608F050C0E12CA7
:100740000F2D10E0000F111F01501C4F20915E046F
:10075000E21608F042C0F801608171810E2C02C0DF
:10076000769567950A94E2F7F29E900111242E0D7A
:10077000311DE7EFF3E080E0458D568D24173507F6
:1007800009F461C08F5F36968A30B1F760FF23C0ED
:10079000E7EFF3E090E080E0448D411117C0E09175
:1007A0005704F0915804E20FF31F4081D89EF001E6
:1007B000D99EF00D1124E950FC4F448F368F258FC0
:1007C00010A2178E61E00E94820205C00196369643
:1007D0008A30910509F7E394B9CFF394ABCF10E0D9
:1007E00089A18111182F2696F4E0C333DF07C1F7E2
:1007F0000E947602609353047093540480935504CE
:10080000909356041123D9F0809118048823B9F0ED
:100810008091160490911704019789F48091130434
:10082000DF91CF911F910F91FF90EF90DF90CF90CC
:10083000BF90AF909F908F907F906F90089510928F
:10084000630480E0EDCF6170BECFAF92BF92CF92D4
:10085000DF92EF92FF920F931F93CF93DF936C0180
:100860007B018B01040F151FEB015E01AE18BF0861
:10087000C017D10759F06991D601ED91FC91019013
:10088000F081E02DC6010995892B79F7C501DF912B
:10089000CF911F910F91FF90EF90DF90CF90BF907D
:1008A000AF900895089590E080E00895CF93DF938E
:1008B000DC01EB01E981F0E0ED58FF4F9491E42F6A
:1008C000F0E0E859FF4FE491E927EC93EA81F0E08A
:1008D000ED58FF4FE4911196EC931197EB81F0E006
:1008E000ED58FF4FE4911296EC931297E881F0E0F7
:1008F000ED58FF4FE4911396EC93DF91CF9108955B
:10090000CF93DF93FC01EB015881B9819A812B8150
:10091000652F70E0660F771F3BE1379F802D112414
:100920006827CB2FD0E0CC0FDD1F3D9F402D112439
:10093000AC2FA427C92FD0E0CC0FDD1F3D9F702D19
:1009400011247C27C22FD0E0CC0FDD1F3D9F302D1E
:1009500011243C278B2F8927822786278A2780838B
:10096000452F492742274A27472741835B272527C9
:100970002727232722839527962793279383DF9181
:10098000CF910895CF93DF93DC01EB01E881F0E094
:10099000ED58FF4FE491EC93ED81F0E0ED58FF4FFF
:1009A000E4911196EC931197EA85F0E0ED58FF4F32
:1009B000E4911296EC931297EF85F0E0ED58FF4F1B
:1009C000E4911396EC931397EC81F0E0ED58FF4F10
:1009D000E4911496EC931497E985F0E0ED58FF4FFD
:1009E000E4911596EC931597EE85F0E0ED58FF4FE6
:1009F000E4911696EC931697EB81F0E0ED58FF4FDB
:100A0000E4911796EC931797E885F0E0ED58FF4FC7
:100A1000E4911896EC931897ED85F0E0ED58FF4FB0
:100A2000E4911996EC931997EA81F0E0ED58FF4FA5
:100A3000E4911A96EC931A97EF81F0E0ED58FF4F8E
:100A4000E4911B96EC931B97EC85F0E0ED58FF4F7B
:100A5000E4911C96EC931C97E981F0E0ED58FF4F70
:100A6000E4911D96EC931D97EE81F0E0ED58FF4F59
:100A7000E4911E96EC931E97EB85F0E0ED58FF4F46
:100A8000E4911F96EC93DF91CF910895FC0132968B
:100A9000429610823196E817F907D9F7089508951C
:100AA000BF92CF92DF92EF92FF920F931F93CF935B
:100AB000DF93CDB7DEB7E4970FB6F894DEBF0FBE75
:100AC000CDBF7B0120E1FC013296DE011196019041
:100AD0000D922A95E1F7FA018E010F5F1F4F405FDB
:100AE0005F4FBE016F5E7F4F98018191D9019D914B
:100AF0009D018927DB018D93BD01E417F507A9F757
:100B0000BB24B39481E1C82ED12CCC0EDD1EB0E104
:100B1000CB0ED11C4B2DBE01635F7F4FCE01C19622
:100B20000E945604398189A9382739832A818AA9E4
:100B300028272A839B818BA998279B838C814CA98A
:100B400084278C834D8134273D834E8124272E8337
:100B50004F8194279F834885842788874985342738
:100B600039874A8524272A874B8594279B874C857C
:100B700084278C874D8534273D873E8523272E8704
:100B80002F8592279F8798898927888BBE016F5E62
:100B90007F4FCE0181960E94C204BE016F5D7F4FE0
:100BA000CE0141960E948004BE016B5D7F4FCE0155
:100BB00045960E948004BE01675D7F4FCE01499635
:100BC0000E948004BE01635D7F4FCE014D960E945E
:100BD0008004AE014F5F5F4FFE0171968191DA0193
:100BE0009D91AD019F01215031098927D9018C9335
:100BF000EC15FD0599F7B394BAE0BB128BCF4AE030
:100C0000BE01635F7F4FCE01C1960E9456043981B9
:100C100089A9382739832A818AA928272A839B8191
:100C20008BA998279B838C814CA984278C834D8129
:100C300034273D834E8124272E834F8194279F8321
:100C40004885842788874985342739874A8524271A
:100C50002A874B8594279B874C8584278C874D85D5
:100C600034273D873E8523272E872F8592279F8710
:100C700098898927888BBE016F5E7F4FCE01819650
:100C80000E94C204AE014F5D5F4FD7019701205F04
:100C90003F4FFA018191AF01F80191918F018927AE
:100CA0008D93A217B307A9F7E4960FB6F894DEBFA9
:100CB0000FBECDBFDF91CF911F910F91FF90EF90AD
:100CC000DF90CF90BF90089580E190E00895FC01FF
:100CD00032964296108231968E179F07D9F7089563
:100CE0008F929F92AF92BF92CF92DF92EF92FF923C
:100CF0000F931F93CF93DF936B017C01EA010E9456
:100D00007602088119812A813B814B015C01801A9E
:100D1000910AA20AB30A950184010C151D052E053E
:100D20003F0590F0688379838A839B8381E0DF911C
:100D3000CF911F910F91FF90EF90DF90CF90BF90D8
:100D4000AF909F908F90089580E0F1CFE1E8F0E0C0
:100D50008081887F8083E0E8F0E080818F7D8083E0
:100D60002A9A60E089E00C94AD01229A82E2809395
:100D7000800088E1809381008FE39CE99093870055
:100D8000809386002A9A08950F931F93CF93DF9341
:100D900060E088E00E94AD010E94A60660E089E064
:100DA0000E94AD01F894E898E09A789461E089E0B7
:100DB0000E94AD010E94B50680913A0390913B03D9
:100DC000A0913C03B0913D030196A11DB11D8093FC
:100DD0003A0390933B03A0933C03B0933D0380916F
:100DE0003E038F5F80933E036AE070E080E090E016
:100DF0000E944402CAE8D0E008EE13E01983088399
:100E0000E0E8F0E0808180628083E1E8F0E08081CA
:100E10008260808368EE73E080E090E00E9444028C
:100E200084EE9CE09983888368EE73E080E090E034
:100E30000E9444021983088368EE73E080E090E02A
:100E40000E9444020E94A60660E089E00E94AD0173
:100E500061E088E00E94AD01F894E89AE09A789405
:100E6000DF91CF911F910F91089561E08BE00E9477
:100E7000AD0165E070E080E090E00E94440260E037
:100E80008BE00C94AD0110923903809149038823C3
:100E900029F08091390381608093390380914A035E
:100EA000882329F0809139038260809339038091EF
:100EB0004403882329F080913903846080933903A7
:100EC00080910801882329F08091390388608093FC
:100ED00039030895382FFC018FEF9FEF219182276E
:100EE00028E0AC014170552796958795452B21F058
:100EF00041E0842740EA9427215099F72E2F231BA5
:100F0000261760F308950F931F93CF93DF9300D0BC
:100F100000D000D0CDB7DEB78C0146E050E062EFE4
:100F200073E0CE0101960E94C21464E0CE010196E6
:100F30000E946A072D813E8182179307A9F4898157
:100F40009A81AB81BC81F80180839183A283B383B2
:100F500081E026960FB6F894DEBF0FBECDBFDF91BD
:100F6000CF911F910F91089580E0F3CFFC01019084
:100F70000020E9F73197AF01481B590BBC0186E609
:100F800094E00C9425048F929F92AF92BF920F939E
:100F90001F93CF93DF93CDB7DEB7A1970FB6F89429
:100FA000DEBF0FBECDBF19A2423008F44AE08E0169
:100FB0000F5D1F4F842E912CB12CA12CA501940103
:100FC0000E944617E62FB901CA01EA30F4F4E05D49
:100FD000D801EE938D01232B242B252B79F790E05C
:100FE00080E0109719F0CD010E94B607A1960FB6C8
:100FF000F894DEBF0FBECDBFDF91CF911F910F914F
:10100000BF90AF909F908F900895E95CE1CF0C94D2
:10101000B607CF93DF93EC0160E08E810E94AD01B3
:1010200061E08E810E94AD0160E08E810E94AD0181
:101030008BE891E00197F1F7DF91CF910895CF927E
:10104000DF92EF92FF920F931F93CF93DF936C0188
:101050007C0187E0E80EF11CD0E0C0E0062F10E034
:10106000B8010C2E02C0759567950A94E2F761707D
:10107000F70181917F010E94AD012196C430D10515
:1010800079F7C601DF91CF911F910F91FF90EF90FB
:10109000DF90CF900C940908CF92DF92EF92FF92ED
:1010A0000F931F93CF93DF93EC01F62E642F8C8167
:1010B0000E94AD018D818F3F19F060E00E94AD016B
:1010C0000F2D10E08F8584FF25C06E0187E0C80ECC
:1010D000D11CF12CE12CB8010E2C02C0759567953E
:1010E0000A94E2F76170F60181916F010E94AD01EF
:1010F000FFEFEF1AFF0A88E0E816F10461F7CE016E
:10110000DF91CF911F910F91FF90EF90DF90CF90E3
:101110000C940908B80184E0759567958A95E1F704
:10112000CE010E941F086F2DCE01DF91CF911F913C
:101130000F91FF90EF90DF90CF900C941F0840E04C
:10114000682F86E694E00C944C0881E00E949F088A
:101150008BE39FE10197F1F70895CF93DF938230FE
:1011600029F49091750498609093750480937904A4
:1011700010927A0480E480937B0480E180937C0465
:1011800080E580937D0461E080916A040E94DF0124
:1011900080916B048F3F19F061E00E94DF0161E0F4
:1011A00080916C040E94DF01C6E6D4E09E012656C1
:1011B00034408091750484FD0BC084E090E021965A
:1011C0002817390744F461E08E810E94DF01EECFD9
:1011D00088E090E0F4CF8BE39DE00197F1F760E0C9
:1011E00080916A040E94AD0160E080916C040E94CD
:1011F000AD0180916B048F3F19F060E00E94AD015A
:101200008091750484FD34C063E086E694E00E941A
:101210001F08CBE4D6E4CE010197F1F763E086E640
:1012200094E00E941F082197F1F763E086E694E0BE
:101230000E941F0883E592E00197F1F762E086E6DD
:1012400094E00E941F088091750480620E949F08AC
:1012500084E0809376048CE00E949F080E94A50899
:1012600082E08093770486E0DF91CF910C949F0811
:1012700080620E949F088BE496E40197F1F78091C9
:10128000750480620E949F0883E592E00197F1F760
:101290008091750480620E949F08D5CF9091790457
:1012A000691710F06FEF690FE62FF0E0EA59FB4F76
:1012B0009489890F80680C949F0841E00E944C0833
:1012C00081E090E0089541E0682F86E694E00E9476
:1012D0004C0881E090E008954F925F926F927F9268
:1012E0008F929F92AF92BF92CF92DF92EF92FF9236
:1012F0000F931F93CF936B017C01742EAC019B0164
:101300000E944117882399F081E891E0CF911F91C5
:101310000F91FF90EF90DF90CF90BF90AF909F9094
:101320008F907F906F905F904F900C94B60746011E
:101330005701E894B7F82FEF3FEF4FE75FE7C5019C
:10134000B4010E94411781110DC02FEF3FEF4FE70D
:101350005FE7C501B4010E94771518161CF485E8F3
:1013600091E0D4CF2FEF3FEF4FE75FE4C701B60125
:101370000E94CF1618161CF489E891E0C7CF2FEF12
:101380003FEF4FE75FECC701B6010E94771587FD7D
:10139000F3CF20E030E0A901C701B6010E94771524
:1013A00010E000E087FF08C08DE20E9463098C0115
:1013B000F7FAF094F7F8F094C0E060E070E080E0B5
:1013C0009FE37C1641F020E030E040E251E40E94CF
:1013D0007C15CF5FF6CFA70196010E940B152B015C
:1013E0003C010E94EE154B015C014AE00E94C307DC
:1013F0007C01E00EF11ECC23B1F1C501B4010E94C5
:101400001D169B01AC01C301B2010E940A154B01DC
:101410005C018EE20E946309E80EF91EC15018F1CA
:1014200020E030E040E251E4C501B4010E94D4164E
:101430002B013C010E94EE154B01B12CA12C4AE07E
:10144000C501B4010E94C307E80EF91EC501B4012D
:101450000E941D169B01AC01C301B2010E940A1536
:101460004B015C01DBCFC701CF911F910F91FF9022
:10147000EF90DF90CF90BF90AF909F908F907F9034
:101480006F905F904F900895EF92FF921F93CF93CC
:10149000DF937C01162F0E94A50860E080E00E9487
:1014A0004E098DE891E00E940708D0E0C0E0C11726
:1014B00030F4F701EC0FFD1F80810E946309219633
:1014C000C430D105A1F7143018F08DE20E946309F1
:1014D000C4E0D0E0C11730F4F701EC0FFD1F8081AC
:1014E0000E9463092196C830D105A1F761E080E030
:1014F0000E944E09183018F08DE20E946309C1174E
:1015000030F4F701EC0FFD1F80810E9463092196E2
:10151000CC30D105A1F71C3018F08DE20E94630990
:10152000C11730F4F701EC0FFD1F80810E946309A1
:101530002196C031D105A1F7103118F08DE20E943B
:101540006309C11730F4F701EC0FFD1F80810E9481
:1015500063092196C431D105A1F7DF91CF911F9185
:10156000FF90EF9008950E948F194031510551F47A
:10157000DC01129680E1FB0101900D928A95E1F762
:1015800081E0089580E00895CF93DF93EC010E94FD
:101590006706CE01DF91CF910C9406191F920F922E
:1015A0000FB60F9211242F933F938F939F93AF9376
:1015B000BF9380915B0390915C03A0915D03B09118
:1015C0005E0330915A0323E0230F2D3758F501961F
:1015D000A11DB11D20935A0380935B0390935C037C
:1015E000A0935D03B0935E0380915F0390916003CD
:1015F000A0916103B09162030196A11DB11D80937A
:101600005F0390936003A0936103B0936203BF9163
:10161000AF919F918F913F912F910F900FBE0F909F
:101620001F90189526E8230F0296A11DB11DD2CF59
:101630001F920F920FB60F9211242F934F935F9327
:101640006F937F938F939F93AF93BF932091840069
:101650008091350390913603A0913703B091380300
:10166000820F911DA11DB11D809335039093360308
:10167000A0933703B09338038091350390913603DC
:10168000A0913703B0913803409135035091360350
:1016900060913703709138032AE0880F991FAA1FC1
:1016A000BB1F2A95D1F7840F951FA61FB71F8093E4
:1016B000350390933603A0933703B093380380919A
:1016C000350390913603A0913703B09138034091D0
:1016D000350350913603609137037091380326E04B
:1016E000B695A795979587952A95D1F7842795273D
:1016F000A627B7278093350390933603A09337032B
:10170000B0933803809134038F5F80933403BF918B
:10171000AF919F918F917F916F915F914F912F9199
:101720000F900FBE0F901F9018951F920F920FB63B
:101730000F9211248F939F93AF93BF9380910901D0
:1017400090910A01A0910B01B0910C01892B8A2B79
:101750008B2BE1F08091090190910A01A0910B017E
:10176000B0910C010197A109B109809309019093EF
:101770000A01A0930B01B0930C01BF91AF919F910F
:101780008F910F900FBE0F901F90189581E080935E
:101790005503F3CF1F920F920FB60F9211241F9390
:1017A0002F933F934F935F936F937F938F939F9369
:1017B000AF93BF93EF93FF93CF93DF93CDB7DEB794
:1017C0002A97DEBFCDBF80910D01811146C060E038
:1017D00088E00E94AD010E94A60660E089E00E94B8
:1017E000AD0110913E0340913A0350913B0360914B
:1017F0003C0370913D038091090190910A01A091F1
:101800000B01B0910C0149835A836B837C838D83D8
:101810009E83AF83B88768E0CE0101960E946A0775
:101820009A8789878AE0189FB00111244AE050E026
:10183000CE0101960E94DA141091390388EF93E0EB
:101840000E94D214181729F0612F88EF93E00E94AC
:10185000FC142D9A81E080930D012A960FB6F8941E
:10186000DEBF0FBECDBFDF91CF91FF91EF91BF9152
:10187000AF919F918F917F916F915F914F913F9128
:101880002F911F910F900FBE0F901F9018951092DF
:10189000E3038091E403807880628F778093E40390
:1018A0001092E5031092E6031092E7031092E8030A
:1018B00080E89EEEA6E3B0E08093E9039093EA030C
:1018C000A093EB03B093EC031092F5031092F60390
:1018D000109269041092680489E791E0909367047C
:1018E0008093660410926A048FEF80936B0481E00A
:1018F00080936C0484E080936D0485E080936E0493
:1019000086E080936F0487E08093700410927104E6
:101910001092720410927304109274041092750461
:1019200081E00E94AD081092F9031092FD0310921D
:10193000FC031092FE038FE691E09093F8038093EE
:10194000F703E3E1F4E010821482138215823696E5
:1019500084E0EF34F807B9F781E191E090935A04FD
:10196000809359048EE091E090935C0480935B0433
:1019700084E080935D0483E080935E0485E191E0E0
:1019800090935804809357048AE090E09093600409
:1019900080935F0484EF91E09093620480936104EC
:1019A000109265041092640410925304109254042F
:1019B0001092550410925604109263040895CF9328
:1019C000DF93CDB7DEB7C556D1090FB6F894DEBFA9
:1019D0000FBECDBF789484B5826084BD84B581602C
:1019E00084BD85B5826085BD85B5816085BD8091EA
:1019F0006E00816080936E00109281008091810062
:101A00008260809381008091810081608093810059
:101A1000809180008160809380008091B10084601B
:101A20008093B1008091B00081608093B00080917C
:101A30007A00846080937A0080917A00826080933B
:101A40007A0080917A00816080937A0080917A0098
:101A5000806880937A001092C100259A62E082E04B
:101A60000E94DF0162E083E00E94DF018091690053
:101A7000826080936900809169008E7F8093690005
:101A800080916900886080936900809169008B7FF4
:101A900080936900E89AE99A789482E00E94AD0800
:101AA00080E40E949F0800E011E058E0E52E51E03C
:101AB000F52ED8016D918D0186E694E00E945D09B6
:101AC000E016F106B1F7D12CC12CE12C812C912C20
:101AD0005401712CF12C8E010F5F1F4F4AE050E032
:101AE000B601C8010E94C21468E0C8010E946A07DA
:101AF00029853A858217930779F489819A81AB8188
:101B0000BC81772009F4E2C088169906AA06BB06B4
:101B100018F4EF2C4C015D01F394BAE0CB0ED11C0C
:101B2000E5E6FE12DBCFE0923E038AE0D801E82F23
:101B30001D92EA95E9F760913E03689FB001112478
:101B40004AE050E0C8010E94C21468E0C8010E9447
:101B50006A0729853A858217930709F055C0809155
:101B60003E038F5F80933E0380913E03853610F0E5
:101B700010923E0389819A81AB81BC8180933A03A4
:101B800090933B03A0933C03B0933D0380913A03B1
:101B900090913B03A0913C03B0913D030196A11DA0
:101BA000B11D80933A0390933B03A0933C03B09301
:101BB0003D0380913A0390913B03A0913C03B09187
:101BC0003D038A3F9F4FAF4FBF4F90F00E94A50843
:101BD00060E080E00E944E0985E991E00E940708DC
:101BE00061E080E00E944E0986EA91E00E940708C9
:101BF0008D819E81AF81B8858093090190930A0100
:101C0000A0930B01B0930C0188EF93E00E94D214D3
:101C100080933903809139038170809349038091C7
:101C200039038695817080934A038091390382FB42
:101C3000882780F9809344038091390383FB8827A8
:101C400080F98093080161E088E00E94DF0161E093
:101C50008BE00E94DF0161E08BE00E94AD0162E356
:101C600070E080E090E00E94440260E08BE00E941F
:101C7000AD010E94B50661E089E00E94DF0160E0ED
:101C800089E00E94AD019E012F5F3F4F1901CE01F7
:101C9000439669969FAF8EAF699780910D01882317
:101CA000D9F046E553E068EC70E080E090E00E94F7
:101CB0007006882321F010920D010E94B50680E085
:101CC00090E0892B51F30E940000E7CFEF2C4C01EC
:101CD0005D017724739420CF80915503882399F078
:101CE00080915403109255038111DDC00E94760249
:101CF0006093500370935103809352039093530366
:101D000081E080935403809154038823F9F00E946A
:101D100076020091500310915103209152033091AB
:101D20005303601B710B820B930B603A7648814022
:101D3000910560F01092540310924F032B9860E0CD
:101D40008FE00E944E0980E20E9463094BE453E059
:101D500068EE73E080E090E00E9470068823A1F0B6
:101D600080914F03811108C080914A03811104C002
:101D700080914903882341F085B198E0892785B98E
:101D800085B191E0892785B945E453E060EA7FE0B9
:101D900080E090E00E947006882321F085B191E0F8
:101DA000892785B98091090190910A01A0910B01C1
:101DB000B0910C01892B8A2B8B2B69F4809108013F
:101DC000882349F00E94C4061092080181E08093A4
:101DD00049030E9443078091090190910A01A09153
:101DE0000B01B0910C0181159D47A105B10568F467
:101DF00080914A03811109C080914403811105C07B
:101E000081E080934A030E9443072D9860E083E0BD
:101E10000E944E096091090170910A0180910B01A5
:101E200090910C010E941D1620E030E048E455E43A
:101E30000E947C1542E00E946C0987EB91E00E94B1
:101E400007088091090190910A01A0910B01B091BE
:101E50000C01892B8A2B8B2B09F05CC061E080E0A0
:101E60000E944E098EEB91E00E9407080E94DE025C
:101E7000182F882309F423CF0E9435078091490346
:101E8000811105C080914A03882309F471C0109222
:101E9000490310924A0381E0809344030E94430760
:101EA0002B98289A0CCF0E94760200915003109133
:101EB00051032091520330915303601B710B820B2D
:101EC000930B603A764881409105B8F481E08093A5
:101ED0004F030E94760260935003709351038093E6
:101EE00052039093530360E08FE00E944E0960E03C
:101EF00086E694E00E945D0906CF10924F0310928F
:101F000054032B9860E08FE00E944E0980E20E940B
:101F10006309F9CE8091090190910A01A0910B010A
:101F2000B0910C0181159D47A105B10538F461E020
:101F300080E00E944E098FEC91E096CF809144039F
:101F4000882321F0109244030E94430761E081E05E
:101F50000E944E096091090170910A0180910B0164
:101F600090910C014AE00E94C30780EE91E07CCF83
:101F700080ED810F8A3008F032C30E94A5080E94CC
:101F800076026093400370934103809342039093E1
:101F90004303198261E088E00E94AD0160E080E0C7
:101FA0000E944E098DE891E00E94070810E040E48D
:101FB00053E060E573EC80E090E00E9470068823B7
:101FC00009F4F5C00E94A50880913F0381508093D9
:101FD0003F036A962FAD6A976B963FAD6B976C96F1
:101FE0004FAD6C976D965FAD6D976E966FAD6E97BA
:101FF0006F967FAD6F97A0968FADA097A1969FAD7E
:10200000A19700E20E94371869017A016496FFAE39
:10201000649765964FAF65976696DFAE669767964D
:102020002FAF6797EBE2F1E0FCA3EBA35E01F3E2D5
:10203000AF0EB11CBA82A98240E150E06BE571E0BD
:10204000C5010E94B50A4E0125E3820E911CC40110
:10205000409624018401D2011D922D018A179B070D
:10206000D1F789819A81DC01ED91FC910284F3859D
:10207000E02D4BE451E0B40109953E01B3E06B0E55
:10208000711CD301F401A2966FAEA297A3967FAE06
:10209000A39781918D93E415F505D9F7C3010E94AB
:1020A00048018DA987FF06C04BE351E0B301C3018E
:1020B0000E9436012301F20181912F0187876996E1
:1020C0002EAD3FAD69972E173F07A9F7CE01439676
:1020D0000E9448018B8187FF08C04BE351E0BE019D
:1020E0006D5E7F4FCB010E943601FE01ED5AFF4F1E
:1020F00090E080E0843091050CF002C12081D40191
:102100002C9331960196BFEF8B1A9B0A8031910573
:1021100089F7AE014D5E5F4FB801C8010E943601DC
:10212000F30111923F014E165F06D1F7A2964FAD13
:10213000A297A3965FADA397B801CE0143960E94E4
:10214000360189819A81DC01ED91FC910284F3854D
:10215000E02DAE014D5E5F4FB80109956DA97EA9D6
:102160008FA998AD0E9468172B013C0163961CAEA5
:102170001DAE1EAE1FAE6397CE01815B9F4F0E94C6
:1021800083078111C7C00E94A50881EF91E00E94DA
:10219000070860ED77E080E090E00E9444020E9432
:1021A000A508C5010E9467060E94A50888CD0E9467
:1021B000DE02082F882309F4FACE0E9435070E9418
:1021C000760260934003709341038093420390939F
:1021D000430380ED800F8A3088F4143108F0E7CE95
:1021E000F101E10FF11D00831F5FF101E10FF11D0E
:1021F0001082612FC1010E94440AD9CE0A3229F40B
:10220000112309F4D4CE1150F0CF033209F0CFCE10
:10221000143109F0CCCE9E012F5F3F4FA6963FAF01
:102220002EAFA697A2961FAEA297A3961FAEA39716
:10223000412C512C612C712C812C912CA696AEAD89
:10224000BFADA6978D91A696BFAFAEAFA6978823D8
:1022500009F43EC38053A4968FAFA4978A3008F048
:1022600056C34AE0A42EB12CC12CD12CE12CF12C68
:1022700000E010E0282F20953FEF4FEF5FEF6FEF6A
:102280007FEF8FEF9FEF0E94D817A296AFACA29777
:10229000A396BFACA3976201730184010E945B18EF
:1022A00008F435C33AE0A32EB12CC12CD12CE12C7B
:1022B000F12C00E010E0A2962FADA297A3963FADBF
:1022C000A397A201B301C4010E947E1759016A01BC
:1022D0007B018C01A4962FADA49730E040E050E044
:1022E00060E070E080E090E00E945218A2962FAF6C
:1022F000A297A3963FAFA3972A013B014C019ECF23
:102300008430910521F420E8D4012C93FBCED40134
:102310001C92F8CE6D968CAD9DADAEADBFAD6D97F8
:10232000481659066A067B0609F0F8C0D701C601AF
:102330002CE1B695A795979587952A95D1F78F307B
:1023400009F0ECC0260137019CE07694679457941D
:1023500047949A95D1F76624772463968CAD9DAD0A
:10236000AEADBFAD639784159505A605B70508F01A
:10237000D5C010923F0382E0F694E794D794C794B7
:102380008A95D1F796013370A0E8BCE00E946F17E0
:102390000091090110910A0120910B0130910C016B
:1023A00000951095209530950617170728073907CF
:1023B00008F4A3C02FB7F894C0900901D0900A0187
:1023C000E0900B01F0900C01C60ED71EE81EF91E1E
:1023D000C0920901D0920A01E0920B01F0920C0127
:1023E0002FBF60E088E00E94AD010E94A6062996FA
:1023F0004CAE5DAE6EAE7FAE299764E0CE018B5BD6
:102400009F4F0E946A072B969FAF8EAF2B9746E097
:1024100050E062EF73E0CE018B5B9F4F0E94DA14B5
:1024200010913E0340913A0350913B0360913C036D
:1024300070913D038091090190910A01A0910B01D7
:10244000B0910C0129964CAF5DAF6EAF7FAF29976D
:102450002D968CAF9DAFAEAFBFAF2D9768E0CE018C
:102460008B5B9F4F0E946A072F969FAF8EAF2F976F
:102470009AE0199FB00111244AE050E0CE018B5B35
:102480009F4F0E94DA1481E08093080161E088E0A8
:102490000E94AD010E94B50680913A0390913B03E2
:1024A000A0913C03B0913D030196A11DB11D809305
:1024B0003A0390933B03A0933C03B0933D03809178
:1024C0003E038F5F80933E030E94A50860E085E095
:1024D0000E944E0987ED91E00E94070861E085E0C7
:1024E0000E944E0982E092E00E94070860ED77E0CA
:1024F00080E090E00E94440254CE0E94A50860E073
:1025000080E00E944E098EE092E00E94070861E0A0
:1025100080E00E944E098EE192E0E6CF10913F03E9
:102520001F5F10933F030E94A50860E0153018F16B
:1025300081E00E944E098FE292E00E940708C0905D
:102540000901D0900A01E0900B01F0900C0161E0CC
:1025500081E00E944E09C701B6010E941D1620E0CD
:1025600030E048E455E40E947C1542E00E946C098A
:102570008EE392E0E2CF80E00E944E0987E492E091
:102580000E94070861E080E00E944E0988E592E021
:102590000E94070880913F03A5E0B0E0A81BB109A5
:1025A0006D010B2E000CEE08FF08B7FF14C08DE282
:1025B0000E94630966277727CB016C197D098E0974
:1025C0009F094AE00E94C30768EE73E080E090E054
:1025D0000E9444028BCF4AE0C701B601F3CF81E1EC
:1025E000E2E2F3E0DE01939601900D928A95E1F725
:1025F00081E11A3209F0CCC0F10111928A95E9F714
:1026000061E088E00E94AD010E94A50860E080E0E2
:102610000E944E0988E692E00E94070861E080E08F
:102620000E944E090E94760260934003709341031A
:10263000809342039093430310E040E453E060E34F
:1026400075E780E090E00E9470068111ADCD0E9498
:10265000DE02082F882361F00E9435070E9476026F
:10266000609340037093410380934203909343032C
:1026700080ED800F8A30B0F41031F8F6FF24F39427
:10268000F10EF101E10FF11D0083F101EF0DF11DDC
:10269000108261E0812F0E944E098AE20E94630944
:1026A0001F2DCBCF0A3299F4112339F21150F101C9
:1026B000E10FF11D108261E0812F0E944E0980E23E
:1026C0000E94630961E0812F0E944E09B6CF033258
:1026D00009F0B3CFBE016D5D7F4FC1010E94941917
:1026E000892B09F0E6C00E94A50860E080E00E9406
:1026F0004E0989E792E00E94070861E080E00E94AD
:102700004E098AE892E00E94070860E273E080E0E8
:1027100090E00E9444021DAA1EAA1FAA18AECE0174
:10272000C5960E948307882301F10E94A50860E0F6
:1027300080E00E944E098BE992E00E94070861E068
:1027400080E00E944E0986EA92E00E9407086DA987
:102750007EA98FA998AD4AE00E94C30768EB7BE091
:1027600080E090E00E9444021FCD0E94A50860E036
:1027700080E00E944E098EEA92E00E94070861E024
:1027800080E00E944E098BEB92E00E940708E6CFA2
:10279000D1011D928A95E9F761E088E00E94AD01C0
:1027A0000E94A50860E080E00E944E0987ED92E05B
:1027B0000E94070861E080E00E944E090E947602B4
:1027C00060934003709341038093420390934303CB
:1027D00010E040E453E060E375E780E090E00E94A1
:1027E00070068111E1CC0E94DE02082F882361F07F
:1027F0000E9435070E947602609340037093410364
:10280000809342039093430380ED800F8A30B0F4AD
:102810001031F8F6FF24F394F10EF101E10FF11DF0
:102820000083F101EF0DF11D108261E0812F0E9404
:102830004E098AE20E9463091F2DCBCF0A3299F418
:10284000112339F21150F101E10FF11D108261E005
:10285000812F0E944E0980E20E94630961E0812F6E
:102860000E944E09B6CF033209F0B3CFBE016D5DB1
:102870007F4FC1010E949419892BD9F40E94A508A9
:1028800060E080E00E944E0987EE92E00E94070817
:1028900061E080E00E944E0988EF92E00E94070804
:1028A00064EF71E080E090E00E9444020E94C40660
:1028B0007BCC0E94A50860E080E00E944E0988EC75
:1028C00092E00E94070860ED77E080E090E04ACF58
:1028D000A296BFADA2976A96BFAF6A97A396EFADD7
:1028E000A3976B96EFAF6B976C964FAE6C976D9608
:1028F0005FAE6D976E966FAE6E976F967FAE6F9769
:10290000A0968FAEA097A1969FAEA19762CB0E9492
:10291000A50860E083E00E944E0987E093E00E94F2
:10292000070861E083E00E944E0985E193E00E9480
:10293000070860ED77E080E090E00E9444020E948A
:10294000A50847CBF894A89584B7877F84BF80916A
:102950006000886180936000109260007894E3E6E4
:10296000F3E01082319683E0E33AF807D1F780E490
:1029700090E023EE33E0F901E81BF90B1082019798
:10298000D1F70895DC01CB01FC01F999FECF06C017
:10299000F2BDE1BDF89A319600B40D92415050401D
:1029A000B8F70895F999FECF92BD81BDF89A99279D
:1029B00080B50895DC01A40FB51F4150504048F088
:1029C000CB01840F951F2E910E94EB144150504073
:1029D000D0F70895262FF999FECF92BD81BDF89AC0
:1029E000019700B4021639F01FBA20BD0FB6F89453
:1029F000FA9AF99A0FBE0895262FF999FECF1FBAB9
:102A000092BD81BD20BD0FB6F894FA9AF99A0FBE17
:102A1000019608955058BB27AA270E9422150C94AE
:102A200095160E94871638F00E948E1620F039F411
:102A30009F3F19F426F40C9484160EF4E095E7FBFE
:102A40000C947E16E92F0E94A61658F3BA17620757
:102A500073078407950720F079F4A6F50C94C8163F
:102A60000EF4E0950B2EBA2FA02D0B01B9019001A9
:102A70000C01CA01A0011124FF27591B99F0593FED
:102A800050F4503E68F11A16F040A22F232F342F35
:102A90004427585FF3CF469537952795A795F04083
:102AA0005395C9F77EF41F16BA0B620B730B840B98
:102AB000BAF09150A1F0FF0FBB1F661F771F881F50
:102AC000C2F70EC0BA0F621F731F841F48F48795A8
:102AD00077956795B795F7959E3F08F0B0CF93959A
:102AE000880F08F09927EE0F9795879508950E9413
:102AF0005A1608F481E008950E9490150C949516DA
:102B00000E948E1658F00E94871640F029F45F3F0D
:102B100029F00C947E1651110C94C9160C9484164D
:102B20000E94A61668F39923B1F3552391F3951BE0
:102B3000550BBB27AA2762177307840738F09F5FDE
:102B40005F4F220F331F441FAA1FA9F335D00E2E4B
:102B50003AF0E0E832D091505040E695001CCAF7B8
:102B60002BD0FE2F29D0660F771F881FBB1F26177B
:102B700037074807AB07B0E809F0BB0B802DBF0152
:102B8000FF2793585F4F3AF09E3F510578F00C9421
:102B90007E160C94C9165F3FE4F3983ED4F38695F5
:102BA00077956795B795F7959F5FC9F7880F911D42
:102BB0009695879597F90895E1E0660F771F881F2E
:102BC000BB1F621773078407BA0720F0621B730BE1
:102BD000840BBA0BEE1F88F7E09508950E94AE169D
:102BE00088F09F5798F0B92F9927B751B0F0E1F0CE
:102BF000660F771F881F991F1AF0BA95C9F714C07E
:102C0000B13091F00E94C816B1E008950C94C81636
:102C1000672F782F8827B85F39F0B93FCCF38695B6
:102C200077956795B395D9F73EF490958095709513
:102C300061957F4F8F4F9F4F0895E89409C097FB90
:102C40003EF490958095709561957F4F8F4F9F4F83
:102C50009923A9F0F92F96E9BB279395F6958795C7
:102C600077956795B795F111F8CFFAF4BB0F11F48A
:102C700060FF1BC06F5F7F4F8F4F9F4F16C0882331
:102C800011F096E911C0772321F09EE8872F762F67
:102C900005C0662371F096E8862F70E060E02AF0A8
:102CA0009A95660F771F881FDAF7880F9695879594
:102CB00097F90895990F0008550FAA0BE0E8FEEF69
:102CC00016161706E807F907C0F012161306E407F0
:102CD000F50798F0621B730B840B950B39F40A26E9
:102CE00061F0232B242B252B21F408950A2609F4C7
:102CF000A140A6958FEF811D811D089597F99F67CB
:102D000080E870E060E008959FEF80EC0895002473
:102D10000A941616170618060906089500240A9440
:102D200012161306140605060895092E0394000CC6
:102D300011F4882352F0BB0F40F4BF2B11F460FF55
:102D400004C06F5F7F4F8F4F9F4F089557FD90587E
:102D5000440F551F59F05F3F71F04795880F97FB5F
:102D6000991F61F09F3F79F0879508951216130619
:102D70001406551FF2CF4695F1DF08C01616170648
:102D80001806991FF1CF869571056105089408957D
:102D9000E894BB2766277727CB0197F908950E940F
:102DA0005A1608F48FEF08950E94E7160C949516B2
:102DB0000E94871638F00E948E1620F0952311F09D
:102DC0000C947E160C94841611240C94C9160E943F
:102DD000A61670F3959FC1F3950F50E0551F629FA3
:102DE000F001729FBB27F00DB11D639FAA27F00D64
:102DF000B11DAA1F649F6627B00DA11D661F829F8B
:102E00002227B00DA11D621F739FB00DA11D621F6F
:102E1000839FA00D611D221F749F3327A00D611D8C
:102E2000231F849F600D211D822F762F6A2F11246E
:102E30009F5750409AF0F1F088234AF0EE0FFF1FA1
:102E4000BB1F661F771F881F91505040A9F79E3FF8
:102E5000510580F00C947E160C94C9165F3FE4F384
:102E6000983ED4F3869577956795B795F795E7954E
:102E70009F5FC1F7FE2B880F911D9695879597F957
:102E800008950E945A16880B990B0895A1E21A2EF4
:102E9000AA1BBB1BFD010DC0AA1FBB1FEE1FFF1FFE
:102EA000A217B307E407F50720F0A21BB30BE40B4E
:102EB000F50B661F771F881F991F1A9469F7609595
:102EC0007095809590959B01AC01BD01CF0108954F
:102ED0006927962769277827872778270895A29F4B
:102EE000B001B39FC001A39F700D811D1124911DDE
:102EF000B29F700D811D1124911D0895DF93CF9312
:102F00001F930F939A9DF02D219FF00D8B9DF00D37
:102F10008A9DE02DF10D039FF00D029FE00DF11D44
:102F20004E9DE00DF11D5E9DF00D4F9DF00D7F93C8
:102F30006F93BF92AF925F934F93D5010E946F172B
:102F40008B01AC01D7010E946F17EB01E80FF91F4D
:102F5000D6010E94CD172F913F91D6010E946F1785
:102F6000C60FD71FE81FF91FAF91BF910E94CD1761
:102F70002F913F910E946F17C60FD71FE81FF91FAF
:102F8000D6010E946F17E60FF71F9801BE01CF010F
:102F90000F911F91CF91DF9108950E946F17460FF7
:102FA000571FC81FD91F08F431960895689401C0AF
:102FB000E8948F929F92CF93DF930E94E417DF9162
:102FC000CF919F908F90089588249924F401E40173
:102FD000B0E49F93AA279A158B049C04ED05FE0587
:102FE000CF05D007A10798F4AD2FDC2FCF2FFE2FF0
:102FF000E92D982C892E982F872F762F652F542F07
:10300000432F322F2227B85031F7BF9127C01B2EF4
:10301000BF91BB27220F331F441F551F661F771F09
:10302000881F991F881C991CEE1FFF1FCC1FDD1FD6
:10303000AA1FBB1F8A149B04EC05FD05CE05DF0506
:10304000A007B10748F08A189B08EC09FD09CE09D2
:10305000DF09A00BB10B21601A94E1F62EF4940164
:10306000AF01BE01CD01000C089597FD1094002E14
:10307000083098F00850232F342F452F562F672FF4
:10308000782F892F912DF4CF159497958795779563
:10309000679557954795379527950A95AAF711246F
:1030A000002D08952A0D3B1D4C1D5D1D6E1D7F1DBD
:1030B000801F911F08952A153B054C055D056E057F
:1030C0007F05800791070895EE0FFF1F0590F4918B
:1030D000E02D09940F931F93CF93DF9382309105D6
:1030E00010F482E090E0E0918004F091810430E0FF
:1030F00020E0B0E0A0E0309799F42115310509F403
:103100004AC0281B390B24303105D8F58A819B81B0
:103110006115710589F1FB0193838283FE0111C062
:10312000408151810281138148175907E0F0481707
:10313000590799F4109761F012960C931297139611
:103140001C933296CF01DF91CF911F910F9108957B
:103150000093800410938104F4CF2115310551F0C0
:103160004217530738F0A901DB019A01BD01DF01C5
:10317000F801C1CFEF01F9CF9093810480938004CF
:10318000CDCFFE01E20FF31F8193919322503109BD
:1031900039832883D7CF20917E0430917F04232B5D
:1031A00041F4209123013091240130937F04209336
:1031B0007E0420912101309122012115310541F435
:1031C0002DB73EB74091250150912601241B350BA8
:1031D000E0917E04F0917F04E217F307A0F42E1B28
:1031E0003F0B2817390778F0AC014E5F5F4F24176B
:1031F000350748F04E0F5F1F50937F0440937E04C5
:10320000819391939FCFF0E0E0E09CCFCF93DF9349
:103210000097E9F0FC01329713821282A09180049A
:10322000B0918104ED0130E020E01097A1F42081FD
:103230003181820F931F20917E0430917F042817E3
:10324000390709F061C0F0937F04E0937E04DF91B9
:10325000CF910895EA01CE17DF07E8F54A815B8137
:103260009E0141155105B1F7E901FB83EA834991BC
:103270005991C40FD51FEC17FD0761F4808191812E
:103280000296840F951FE901998388838281938137
:103290009B838A83F0E0E0E012968D919C911397D6
:1032A0000097B9F52D913C911197CD010296820FAF
:1032B000931F20917E0430917F042817390739F637
:1032C000309751F51092810410928004B0937F04DE
:1032D000A0937E04BCCFD383C28340815181840FED
:1032E000951FC817D90761F44E5F5F4F8881998198
:1032F000480F591F518340838A819B819383828326
:103300002115310509F0B0CFF0938104E0938004DA
:103310009ECFFD01DC01C0CF13821282D7CF81E0A6
:1033200090E0F8940C949D19FB01DC018D910190C3
:1033300080190110D9F3990B089510E0C8EED0E080
:1033400004C0FE010E9464182196C93ED107C9F746
:10335000F894FFCF04150E1F0E150404010500009C
:1033600000010F0E0C131211103132333435363781
:1033700038392A30230000820480000000000067F2
:1033800006C40A64066406B50A50054F05460500E2
:1033900000000000000000000000000000008700A6
:1033A0000000000000000000000000000000002BF2
:1033B0007E151628AED2A6ABF7158809CF4F3C0074
:1033C0000000001B02DB01AA01000000005D0925CE
:1033D00004530452046E616E00696E66006F766677
:1033E00000546F6B656E3A200020526520496E696B
:1033F0007469616C697A65202000454570726F6D53
:1034000020746F2052657573652E00206B576820FD
:103410002000556E69747320457868617573746512
:10342000642E004C6F772042616C205265636861A6
:103430007267650020496D70202020202020202008
:103440002020202000454550524F4D207265616478
:10345000206661696C005375636365737366756C90
:103460002E0043616E6E6F742052656368617267EF
:103470006500746F2045786365737320556E6974B9
:103480007321004D45544552204C4F434B45442039
:103490002100206B5768202020200020546F6B658E
:1034A0006E20496E76616C696420210041747465F8
:1034B0006D707473206C6566743A2000546F6B6590
:1034C0006E53657269616C2050494E3A002020208D
:1034D0002050617373776F726420202020002020B9
:1034E0002041636365707465642021202020004CB6
:1034F00061737420546F6B656E00536C204E6F2E99
:103500002000454550524F4D204572726F72005455
:103510006F6B656E2053657269616C0057726F6ED8
:10352000672050617373776F726400536572766FB2
:10353000546573742E2070696E3A0050617373770E
:103540006F726420436F7272656374004D63622012
:1035500054657374696E672E2E2E004F7574204F5C
:10356000662052616E67652E00456E74657220415B
:103570006761696E2E003139333735303432363871
:08358000313539333537000005
:107800000C94343C0C94513C0C94513C0C94513CE1
:107810000C94513C0C94513C0C94513C0C94513CB4
:107820000C94513C0C94513C0C94513C0C94513CA4
:107830000C94513C0C94513C0C94513C0C94513C94
:107840000C94513C0C94513C0C94513C0C94513C84
:107850000C94513C0C94513C0C94513C0C94513C74
:107860000C94513C0C94513C11241FBECFEFD8E036
:10787000DEBFCDBF11E0A0E0B1E0ECE9FFE702C060
:1078800005900D92A230B107D9F712E0A2E0B1E065
:1078900001C01D92AD30B107E1F70E942D3D0C945F
:1078A000CC3F0C94003C982F959595959595959582
:1078B000905D8F708A307CF0282F295A8091C0000B
:1078C00085FFFCCF9093C6008091C00085FFFCCF60
:1078D0002093C6000895282F205DF0CF982F809127
:1078E000C00085FFFCCF9093C6000895EF92FF92F1
:1078F0000F931F93EE24FF2487018091C00087FD22
:1079000017C00894E11CF11C011D111D81E4E8164B
:1079100082E4F8068FE0080780E0180770F3E09132
:107920000401F091050109958091C00087FFE9CF1E
:107930008091C6001F910F91FF90EF9008950E94D3
:10794000763C982F8091C00085FFFCCF9093C600B5
:1079500091362CF490330CF09053892F089597555D
:10796000892F08951F930E949F3C182F0E949F3CCF
:107970001295107F810F1F9108951F93182F882350
:1079800021F00E94763C1150E1F71F9108951F935A
:10799000182F0E94763C803249F0809103018F5F5E
:1079A000809303018530C1F01F9108958091C0003C
:1079B00085FFFCCF84E18093C6008091C00085FFE5
:1079C000FCCF1093C6008091C00085FFFCCF80E102
:1079D0008093C6001F910895E0910401F091050184
:1079E00009951F9108950E94763C803241F0809164
:1079F00003018F5F80930301853081F008958091AA
:107A0000C00085FFFCCF84E18093C6008091C00058
:107A100085FFFCCF80E18093C6000895E0910401CA
:107A2000F09105010995089540E951E08823A1F0FE
:107A30002D9A28EE33E0FA013197F1F721503040CA
:107A4000D1F72D9828EE33E0FA013197F1F7215064
:107A50003040D1F7815061F708953F924F925F9285
:107A60006F927F928F929F92AF92BF92CF92DF924E
:107A7000EF92FF920F931F93CF93DF93000080E16B
:107A80008093C4001092C50088E18093C10086E015
:107A90008093C2005098589A259A81E00E94143D24
:107AA00024E1F22E9EE1E92E85E9D82E0FE0C02ECA
:107AB00010E1B12EAA24A394B1E49B2EA6E58A2E50
:107AC000F2E57F2EE0E26E2E79E4572E63E5462E36
:107AD00050E5352E0E94763C8033B1F18133B9F107
:107AE000803409F46FC0813409F476C0823409F41B
:107AF00085C0853409F488C0803531F1823521F1A3
:107B0000813511F1853509F485C0863509F48DC0BC
:107B1000843609F496C0843709F403C1853709F423
:107B200072C1863709F466C0809103018F5F80932C
:107B30000301853079F6E0910401F0910501099582
:107B40000E94763C803351F60E94F33CC3CF0E94E2
:107B5000763C803249F78091C00085FFFCCFF092DF
:107B6000C6008091C00085FFFCCF9092C600809136
:107B7000C00085FFFCCF8092C6008091C00085FFC9
:107B8000FCCF7092C6008091C00085FFFCCF609250
:107B9000C6008091C00085FFFCCF5092C600809146
:107BA000C00085FFFCCF4092C6008091C00085FFD9
:107BB000FCCF3092C6008091C00085FFFCCFB09210
:107BC000C60088CF0E94763C863808F4BDCF0E945C
:107BD000763C0E94F33C7ECF0E94763C803809F4CC
:107BE0009CC0813809F40BC1823809F43CC1883942
:107BF00009F48FC080E00E94C73C6CCF84E10E94F2
:107C0000BD3C0E94F33C66CF85E00E94BD3C0E94D3
:107C1000F33C60CF0E94763C809306010E94763C44
:107C2000809307010E94F33C55CF0E94763C80333D
:107C300009F41DC183E00E94BD3C80E00E94C73C66
:107C400049CF0E94763C809309020E94763C809343
:107C5000080280910C028E7F80930C020E94763C79
:107C6000853409F415C18091080290910902892B8D
:107C700089F000E010E00E94763CF801E85FFE4FDA
:107C800080830F5F1F4F80910802909109020817AF
:107C9000190788F30E94763C803209F045CF809125
:107CA0000C0280FF01C16091060170910701660F0F
:107CB000771F7093070160930601A0910802B091AD
:107CC00009021097C9F0E8E0F1E09B01AD014E0F09
:107CD0005F1FF999FECF32BD21BD819180BDFA9A17
:107CE000F99A2F5F3F4FE417F50799F76A0F7B1F4B
:107CF00070930701609306018091C00085FFFCCF5F
:107D0000F092C6008091C00085FFFCCFB092C60003
:107D1000E1CE83E00E94C73CDDCE82E00E94C73CFA
:107D2000D9CE0E94763C809309020E94763C8093D3
:107D300008028091060190910701880F991F909386
:107D40000701809306010E94763C853409F4A6C0A1
:107D500080910C028E7F80930C020E94763C8032D0
:107D600009F0B8CE8091C00085FFFCCFF092C6002C
:107D7000609108027091090261157105B9F140E046
:107D800050E080910C02A82FA170B82FB27011C0E2
:107D9000BB2309F45CC0E0910601F0910701319624
:107DA000F0930701E09306014F5F5F4F46175707B7
:107DB000E8F4AA2369F3F999FECF209106013091E6
:107DC000070132BD21BDF89A90B58091C00085FFB2
:107DD000FCCF9093C6002F5F3F4F30930701209355
:107DE00006014F5F5F4F4617570718F38091C00099
:107DF00085FDE5CE8091C00085FFF8CFE0CE81E023
:107E00000E94C73C67CE0E94763C803209F08CCE3F
:107E10008091C00085FFFCCFF092C6008091C00029
:107E200085FFFCCFE092C6008091C00085FFFCCFAB
:107E3000D092C6008091C00085FFFCCFC092C600E2
:107E40008091C00085FFFCCFB092C60043CEE09188
:107E50000601F091070194918091C00085FFFCCF4D
:107E60009093C6009CCF80E10E94C73C33CE0E9415
:107E7000763C0E94763C182F0E94763C112309F430
:107E800083C0113009F484C08FE00E94C73C22CE29
:107E900080910C02816080930C02E5CE80910C02EF
:107EA000816080930C0259CF809107018823880F4D
:107EB000880B8A2180930B02809106019091070123
:107EC000880F991F90930701809306018091080203
:107ED00080FF09C080910802909109020196909359
:107EE000090280930802F894F999FECF1127E091D6
:107EF0000601F0910701C8E0D1E08091080290915D
:107F00000902103091F40091570001700130D9F34B
:107F100003E000935700E89500915700017001308D
:107F2000D9F301E100935700E89509901990009169
:107F3000570001700130D9F301E000935700E89534
:107F40001395103498F011270091570001700130FB
:107F5000D9F305E000935700E895009157000170B0
:107F60000130D9F301E100935700E895329602976A
:107F700009F0C7CF103011F00296E5CF112480919F
:107F8000C00085FFB9CEBCCE8EE10E94C73CA2CD19
:0E7F900085E90E94C73C9ECDF894FFCF80008B
:00000001FF
