:100000000C945D000C9485000C9485000C94850084
:100010000C9485000C9485000C9485000C9485004C
:100020000C9485000C9485000C9485000C9485003C
:100030000C9485000C9485000C9485000C9485002C
:100040000C9443030C9485000C9485000C9485005B
:100050000C9485000C9485000C9485000C9485000C
:100060000C9485000C94850000000008000201003B
:100070000003040700000000000000000000000072
:10008000250028002B0000000000240027002A0083
:10009000040404040404040402020202020203032E
:1000A0000303030301020408102040800102040836
:1000B0001020010204081020900411241FBECFEF6D
:1000C000D8E0DEBFCDBF11E0A0E0B1E0EEE3FAE0A2
:1000D00002C005900D92AC34B107D9F721E0ACE431
:1000E000B1E001C01D92AA37B207E1F710E0CDE5FB
:1000F000D0E004C02197FE010E941705CC35D1073E
:10010000C9F70E948D030C941D050C940000EDE6C8
:10011000F1E08FEF9FEF2191822728E0AC01417041
:10012000552796958795452B21F031E0832730EAB6
:100130009327215099F721E0E837F20761F70895F6
:1001400090E0FC01EC55FF4F249180579F4FFC013C
:100150008491882399F090E0880F991FFC01EA5759
:10016000FF4FA591B491FC01E458FF4F8591949104
:100170008FB7F894EC91E22BEC938FBF089590E049
:10018000FC01E859FF4F2491FC01EC55FF4F3491DD
:10019000FC01E057FF4FE491EE23C9F0222339F030
:1001A000233001F1A8F4213019F1223029F1F0E0D7
:1001B000EE0FFF1FE458FF4FA591B4918FB7F8944D
:1001C000EC91611126C030953E233C938FBF08957A
:1001D0002730A9F02830C9F0243049F780918000F9
:1001E0008F7D03C0809180008F7780938000DFCF68
:1001F00084B58F7784BDDBCF84B58F7DFBCF8091B5
:10020000B0008F778093B000D2CF8091B0008F7D07
:10021000F9CF3E2BDACF3FB7F894809151019091FE
:100220005201A0915301B091540126B5A89B05C07D
:100230002F3F19F00196A11DB11D3FBFBA2FA92F65
:10024000982F8827BC01CD01620F711D811D911D62
:1002500042E0660F771F881F991F4A95D1F70895CE
:100260008F929F92AF92BF92CF92DF92EF92FF92C6
:100270004B015C010E940B016B017C010E940B0190
:100280006C197D098E099F09683E734081059105AF
:10029000A8F321E0821A9108A108B10888EEC80EDF
:1002A00083E0D81EE11CF11C81149104A104B10467
:1002B00029F7FF90EF90DF90CF90BF90AF909F9085
:1002C0008F900895AF92BF92CF92DF92EF92FF92FC
:1002D0000F931F93CF93DF936C017B018B01040F6E
:1002E000151FEB015E01AE18BF08C017D10759F00A
:1002F0006991D601ED91FC910190F081E02DC6014C
:100300000995892B79F7C501DF91CF911F910F9145
:10031000FF90EF90DF90CF90BF90AF900895089539
:1003200090E080E008958F929F92AF92BF920F93DA
:100330001F93CF93DF93CDB7DEB7A1970FB6F89495
:10034000DEBF0FBECDBF19A2423008F44AE08E01D5
:100350000F5D1F4F842E912CB12CA12CA50194016F
:100360000E94F504E62FB901CA01EA3044F5E05DC8
:10037000D801EE938D01232B242B252B79F790E0C8
:1003800080E0109769F0FD0101900020E9F73197B6
:10039000AF014A1B5B0BBD0185E591E00E94620144
:1003A000A1960FB6F894DEBF0FBECDBFDF91CF91FF
:1003B0001F910F91BF90AF909F908F900895E95C2F
:1003C000D7CFFC0101900020E9F73197AF01481B1E
:1003D000590BBC0185E591E00C946201CF93DF934A
:1003E000EC0160E08E810E94BF0061E08E810E947E
:1003F000BF0060E08E810E94BF008BE891E0019712
:10040000F1F7DF91CF910895CF92DF92EF92FF92B3
:100410000F931F93CF93DF936C017C0187E0E80E6D
:10042000F11CD0E0C0E0062F10E0B8010C2E02C095
:10043000759567950A94E2F76170F70181917F01E4
:100440000E94BF002196C430D10579F7C601DF9123
:10045000CF911F910F91FF90EF90DF90CF900C9470
:10046000EE01CF92DF92EF92FF920F931F93CF9303
:10047000DF93EC01F62E642F8C810E94BF008D81EA
:100480008F3F19F060E00E94BF000F2D10E08F85B4
:1004900084FF25C06E0187E0C80ED11CF12CE12C31
:1004A000B8010E2C02C0759567950A94E2F7617049
:1004B000F60181916F010E94BF00FFEFEF1AFF0A62
:1004C00088E0E816F10461F7CE01DF91CF911F912A
:1004D0000F91FF90EF90DF90CF900C94EE01B80158
:1004E00084E0759567958A95E1F7CE010E94040234
:1004F0006F2DCE01DF91CF911F910F91FF90EF9063
:10050000DF90CF900C94040240E0682F85E591E0E5
:100510000C94310281E00E9484028BE39FE10197F9
:10052000F1F70895CF93DF93823029F4909164011D
:10053000986090936401809368011092690180E44F
:1005400080936A0180E180936B0180E580936C0168
:10055000809159010E94A00080915A018F3F11F0B3
:100560000E94A00080915B010E94A000C5E5D1E03F
:100570009E01255531408091640184FD0AC084E0CC
:1005800090E02196281739073CF48E810E94A00044
:10059000EFCF88E090E0F5CF8BE39DE00197F1F796
:1005A00060E0809159010E94BF0060E080915B0192
:1005B0000E94BF0080915A018F3F19F060E00E94B5
:1005C000BF008091640184FD34C063E085E591E063
:1005D0000E940402CBE4D6E4CE010197F1F763E078
:1005E00085E591E00E9404022197F1F763E085E53B
:1005F00091E00E94040283E592E00197F1F762E046
:1006000085E591E00E9404028091640180620E946D
:10061000840284E0809365018CE00E9484020E9441
:100620008A0282E08093660186E0DF91CF910C948C
:10063000840280620E9484028BE496E40197F1F7C1
:100640008091640180620E94840283E592E00197B8
:10065000F1F78091640180620E948402D5CF90916D
:100660006801891710F08FEF890FE82FF0E0EB5A3F
:10067000FE4F848980680C94840241E00E9431021C
:1006800081E090E008951F920F920FB60F9211240F
:100690002F933F938F939F93AF93BF9380914D017F
:1006A00090914E01A0914F01B091500130914C01B9
:1006B00023E0230F2D3758F50196A11DB11D20937E
:1006C0004C0180934D0190934E01A0934F01B09344
:1006D00050018091510190915201A0915301B0912C
:1006E00054010196A11DB11D8093510190935201B7
:1006F000A0935301B0935401BF91AF919F918F91FB
:100700003F912F910F900FBE0F901F90189526E8E4
:10071000230F0296A11DB11DD2CF789484B58260BB
:1007200084BD84B5816084BD85B5826085BD85B595
:10073000816085BD80916E00816080936E00109213
:10074000810080918100826080938100809181008E
:10075000816080938100809180008160809380001F
:100760008091B10084608093B1008091B00081607D
:100770008093B00080917A00846080937A008091A9
:100780007A00826080937A0080917A008160809301
:100790007A0080917A00806880937A001092C1007C
:1007A00082E00E949202D0E0C0E0CE010E94BD042F
:1007B000882321F060E0CE010E94E7042196C11554
:1007C00084E0D80791F785E090E0A0E0B0E0809366
:1007D000710190937201A0937301B093740181E051
:1007E00090E0A0E0B0E080936D0190936E01A09343
:1007F0006F01B0937001909376018093750188E04A
:10080000809377010E94870090937901809378010B
:100810004DE050E070E060E08DE691E00E94C5049C
:100820000E948A028CE091E00E94E10168EE73E090
:1008300080E090E00E9430014DE050E070E060E028
:100840008DE691E00E94AD040E948700209178011E
:10085000309179018217930709F054C00E948A02EF
:1008600080E00E942F0389E191E00E94E101609104
:1008700071017091720180917301909174014AE04D
:100880000E94930181E00E942F038EE191E00E947B
:10089000E10160916D0170916E0180916F01909105
:1008A00070014AE00E94930160ED77E080E090E003
:1008B0000E9430010E948A0280E00E942F0383E29E
:1008C00091E00E94E101609175017091760190E0E4
:1008D00080E04AE00E94930181E00E942F038BE2B6
:1008E00091E00E94E1016091770170E090E080E08A
:1008F00042E00E949301C0E0D0E02097F1F30E9413
:100900000000FBCF0E948A0283E391E00E94E10194
:1009100081E00E942F0380E491E00E94E101EBCF8F
:10092000E5E5F1E01382128284E091E09183808317
:1009300014828FEF858381E0868384E0878385E05E
:10094000808786E0818787E08287138614861586F4
:100950001686178681E00C949202DC01CB01FC0123
:10096000F999FECF06C0F2BDE1BDF89A319600B408
:100970000D9241505040B8F70895F999FECF92BDBD
:1009800081BDF89A992780B50895DC01A40FB51FA1
:100990004150504048F0CB01840F951F2E910E948A
:1009A000D60441505040D0F70895262FF999FECF34
:1009B00092BD81BDF89A019700B4021639F01FBAB2
:1009C00020BD0FB6F894FA9AF99A0FBE0895262F13
:1009D000F999FECF1FBA92BD81BD20BD0FB6F89424
:1009E000FA9AF99A0FBE01960895A1E21A2EAA1B4F
:1009F000BB1BFD010DC0AA1FBB1FEE1FFF1FA217CF
:100A0000B307E407F50720F0A21BB30BE40BF50BCB
:100A1000661F771F881F991F1A9469F76095709554
:100A2000809590959B01AC01BD01CF010895EE0F1B
:0E0A3000FF1F0590F491E02D0994F894FFCF7C
:100A3E00000000003D03620190018F0145455052B8
:100A4E004F4D20575249544500496D703A00536539
:100A5E00713A0053657269616C3A00537461747532
:100A6E00733A00454550524F4D204552524F520059
:0C0A7E0043524320496E76616C696400AD
:00000001FF
